{
	"contracts/Tether USD.sol": {
		"TetherUSD": {
			"abi": [
				{
					"inputs": [],
					"payable": false,
					"stateMutability": "nonpayable",
					"type": "constructor"
				},
				{
					"anonymous": false,
					"inputs": [
						{
							"indexed": true,
							"internalType": "address",
							"name": "owner",
							"type": "address"
						},
						{
							"indexed": true,
							"internalType": "address",
							"name": "spender",
							"type": "address"
						},
						{
							"indexed": false,
							"internalType": "uint256",
							"name": "value",
							"type": "uint256"
						}
					],
					"name": "Approval",
					"type": "event"
				},
				{
					"anonymous": false,
					"inputs": [
						{
							"indexed": true,
							"internalType": "address",
							"name": "previousOwner",
							"type": "address"
						},
						{
							"indexed": true,
							"internalType": "address",
							"name": "newOwner",
							"type": "address"
						}
					],
					"name": "OwnershipTransferred",
					"type": "event"
				},
				{
					"anonymous": false,
					"inputs": [
						{
							"indexed": true,
							"internalType": "address",
							"name": "from",
							"type": "address"
						},
						{
							"indexed": true,
							"internalType": "address",
							"name": "to",
							"type": "address"
						},
						{
							"indexed": false,
							"internalType": "uint256",
							"name": "value",
							"type": "uint256"
						}
					],
					"name": "Transfer",
					"type": "event"
				},
				{
					"constant": true,
					"inputs": [],
					"name": "_decimals",
					"outputs": [
						{
							"internalType": "uint8",
							"name": "",
							"type": "uint8"
						}
					],
					"payable": false,
					"stateMutability": "view",
					"type": "function"
				},
				{
					"constant": true,
					"inputs": [],
					"name": "_name",
					"outputs": [
						{
							"internalType": "string",
							"name": "",
							"type": "string"
						}
					],
					"payable": false,
					"stateMutability": "view",
					"type": "function"
				},
				{
					"constant": true,
					"inputs": [],
					"name": "_symbol",
					"outputs": [
						{
							"internalType": "string",
							"name": "",
							"type": "string"
						}
					],
					"payable": false,
					"stateMutability": "view",
					"type": "function"
				},
				{
					"constant": true,
					"inputs": [
						{
							"internalType": "address",
							"name": "owner",
							"type": "address"
						},
						{
							"internalType": "address",
							"name": "spender",
							"type": "address"
						}
					],
					"name": "allowance",
					"outputs": [
						{
							"internalType": "uint256",
							"name": "",
							"type": "uint256"
						}
					],
					"payable": false,
					"stateMutability": "view",
					"type": "function"
				},
				{
					"constant": false,
					"inputs": [
						{
							"internalType": "address",
							"name": "spender",
							"type": "address"
						},
						{
							"internalType": "uint256",
							"name": "amount",
							"type": "uint256"
						}
					],
					"name": "approve",
					"outputs": [
						{
							"internalType": "bool",
							"name": "",
							"type": "bool"
						}
					],
					"payable": false,
					"stateMutability": "nonpayable",
					"type": "function"
				},
				{
					"constant": true,
					"inputs": [
						{
							"internalType": "address",
							"name": "account",
							"type": "address"
						}
					],
					"name": "balanceOf",
					"outputs": [
						{
							"internalType": "uint256",
							"name": "",
							"type": "uint256"
						}
					],
					"payable": false,
					"stateMutability": "view",
					"type": "function"
				},
				{
					"constant": false,
					"inputs": [
						{
							"internalType": "uint256",
							"name": "amount",
							"type": "uint256"
						}
					],
					"name": "burn",
					"outputs": [
						{
							"internalType": "bool",
							"name": "",
							"type": "bool"
						}
					],
					"payable": false,
					"stateMutability": "nonpayable",
					"type": "function"
				},
				{
					"constant": true,
					"inputs": [],
					"name": "decimals",
					"outputs": [
						{
							"internalType": "uint8",
							"name": "",
							"type": "uint8"
						}
					],
					"payable": false,
					"stateMutability": "view",
					"type": "function"
				},
				{
					"constant": false,
					"inputs": [
						{
							"internalType": "address",
							"name": "spender",
							"type": "address"
						},
						{
							"internalType": "uint256",
							"name": "subtractedValue",
							"type": "uint256"
						}
					],
					"name": "decreaseAllowance",
					"outputs": [
						{
							"internalType": "bool",
							"name": "",
							"type": "bool"
						}
					],
					"payable": false,
					"stateMutability": "nonpayable",
					"type": "function"
				},
				{
					"constant": true,
					"inputs": [],
					"name": "getOwner",
					"outputs": [
						{
							"internalType": "address",
							"name": "",
							"type": "address"
						}
					],
					"payable": false,
					"stateMutability": "view",
					"type": "function"
				},
				{
					"constant": false,
					"inputs": [
						{
							"internalType": "address",
							"name": "spender",
							"type": "address"
						},
						{
							"internalType": "uint256",
							"name": "addedValue",
							"type": "uint256"
						}
					],
					"name": "increaseAllowance",
					"outputs": [
						{
							"internalType": "bool",
							"name": "",
							"type": "bool"
						}
					],
					"payable": false,
					"stateMutability": "nonpayable",
					"type": "function"
				},
				{
					"constant": false,
					"inputs": [
						{
							"internalType": "uint256",
							"name": "amount",
							"type": "uint256"
						}
					],
					"name": "mint",
					"outputs": [
						{
							"internalType": "bool",
							"name": "",
							"type": "bool"
						}
					],
					"payable": false,
					"stateMutability": "nonpayable",
					"type": "function"
				},
				{
					"constant": true,
					"inputs": [],
					"name": "name",
					"outputs": [
						{
							"internalType": "string",
							"name": "",
							"type": "string"
						}
					],
					"payable": false,
					"stateMutability": "view",
					"type": "function"
				},
				{
					"constant": true,
					"inputs": [],
					"name": "owner",
					"outputs": [
						{
							"internalType": "address",
							"name": "",
							"type": "address"
						}
					],
					"payable": false,
					"stateMutability": "view",
					"type": "function"
				},
				{
					"constant": false,
					"inputs": [],
					"name": "renounceOwnership",
					"outputs": [],
					"payable": false,
					"stateMutability": "nonpayable",
					"type": "function"
				},
				{
					"constant": true,
					"inputs": [],
					"name": "symbol",
					"outputs": [
						{
							"internalType": "string",
							"name": "",
							"type": "string"
						}
					],
					"payable": false,
					"stateMutability": "view",
					"type": "function"
				},
				{
					"constant": true,
					"inputs": [],
					"name": "totalSupply",
					"outputs": [
						{
							"internalType": "uint256",
							"name": "",
							"type": "uint256"
						}
					],
					"payable": false,
					"stateMutability": "view",
					"type": "function"
				},
				{
					"constant": false,
					"inputs": [
						{
							"internalType": "address",
							"name": "recipient",
							"type": "address"
						},
						{
							"internalType": "uint256",
							"name": "amount",
							"type": "uint256"
						}
					],
					"name": "transfer",
					"outputs": [
						{
							"internalType": "bool",
							"name": "",
							"type": "bool"
						}
					],
					"payable": false,
					"stateMutability": "nonpayable",
					"type": "function"
				},
				{
					"constant": false,
					"inputs": [
						{
							"internalType": "address",
							"name": "sender",
							"type": "address"
						},
						{
							"internalType": "address",
							"name": "recipient",
							"type": "address"
						},
						{
							"internalType": "uint256",
							"name": "amount",
							"type": "uint256"
						}
					],
					"name": "transferFrom",
					"outputs": [
						{
							"internalType": "bool",
							"name": "",
							"type": "bool"
						}
					],
					"payable": false,
					"stateMutability": "nonpayable",
					"type": "function"
				},
				{
					"constant": false,
					"inputs": [
						{
							"internalType": "address",
							"name": "newOwner",
							"type": "address"
						}
					],
					"name": "transferOwnership",
					"outputs": [],
					"payable": false,
					"stateMutability": "nonpayable",
					"type": "function"
				}
			],
			"devdoc": {
				"methods": {
					"allowance(address,address)": {
						"details": "See {ORC20-allowance}."
					},
					"approve(address,uint256)": {
						"details": "See {ORC20-approve}.   * Requirements:   * - `spender` cannot be the zero address."
					},
					"balanceOf(address)": {
						"details": "See {ORC20-balanceOf}."
					},
					"burn(uint256)": {
						"details": "Burn `amount` tokens and decreasing the total supply."
					},
					"decimals()": {
						"details": "Returns the token decimals."
					},
					"decreaseAllowance(address,uint256)": {
						"details": "Atomically decreases the allowance granted to `spender` by the caller.   * This is an alternative to {approve} that can be used as a mitigation for problems described in {ORC20-approve}.   * Emits an {Approval} event indicating the updated allowance.   * Requirements:   * - `spender` cannot be the zero address. - `spender` must have allowance for the caller of at least `subtractedValue`."
					},
					"getOwner()": {
						"details": "Returns the token owner."
					},
					"increaseAllowance(address,uint256)": {
						"details": "Atomically increases the allowance granted to `spender` by the caller.   * This is an alternative to {approve} that can be used as a mitigation for problems described in {ORC20-approve}.   * Emits an {Approval} event indicating the updated allowance.   * Requirements:   * - `spender` cannot be the zero address."
					},
					"mint(uint256)": {
						"details": "Creates `amount` tokens and assigns them to `msg.sender`, increasing the total supply.   * Requirements   * - `msg.sender` must be the token owner"
					},
					"name()": {
						"details": "Returns the token name."
					},
					"owner()": {
						"details": "Returns the address of the current owner."
					},
					"renounceOwnership()": {
						"details": "Leaves the contract without owner. It will not be possible to call `onlyOwner` functions anymore. Can only be called by the current owner.   * NOTE: Renouncing ownership will leave the contract without an owner, thereby removing any functionality that is only available to the owner."
					},
					"symbol()": {
						"details": "Returns the token symbol."
					},
					"totalSupply()": {
						"details": "See {ORC20-totalSupply}."
					},
					"transfer(address,uint256)": {
						"details": "See {ORC20-transfer}.   * Requirements:   * - `recipient` cannot be the zero address. - the caller must have a balance of at least `amount`."
					},
					"transferFrom(address,address,uint256)": {
						"details": "See {ORC20-transferFrom}.   * Emits an {Approval} event indicating the updated allowance. This is not required by the EIP. See the note at the beginning of {ORC20};   * Requirements: - `sender` and `recipient` cannot be the zero address. - `sender` must have a balance of at least `amount`. - the caller must have allowance for `sender`'s tokens of at least `amount`."
					},
					"transferOwnership(address)": {
						"details": "Transfers ownership of the contract to a new account (`newOwner`). Can only be called by the current owner."
					}
				}
			},
			"evm": {
				"assembly": "    /* \"contracts/Tether USD.sol\":10968:18706  contract TetherUSD is Context, IORC20, Ownable {... */\n  mstore(0x40, 0x80)\n    /* \"contracts/Tether USD.sol\":11282:11513  constructor() public {... */\n  callvalue\n    /* \"--CODEGEN--\":8:17   */\n  dup1\n    /* \"--CODEGEN--\":5:7   */\n  iszero\n  tag_1\n  jumpi\n    /* \"--CODEGEN--\":30:31   */\n  0x00\n    /* \"--CODEGEN--\":27:28   */\n  dup1\n    /* \"--CODEGEN--\":20:32   */\n  revert\n    /* \"--CODEGEN--\":5:7   */\ntag_1:\n  pop\n    /* \"contracts/Tether USD.sol\":9527:9544  address msgSender */\n  0x00\n    /* \"contracts/Tether USD.sol\":9547:9559  _msgSender() */\n  tag_7\n    /* \"contracts/Tether USD.sol\":9547:9557  _msgSender */\n  0x0100000000\n  tag_8\n  dup2\n  mul\n    /* \"contracts/Tether USD.sol\":9547:9559  _msgSender() */\n  div\n  jump\t// in\ntag_7:\n    /* \"contracts/Tether USD.sol\":9565:9571  _owner */\n  0x00\n    /* \"contracts/Tether USD.sol\":9565:9583  _owner = msgSender */\n  dup1\n  sload\n  not(sub(exp(0x02, 0xa0), 0x01))\n  and\n  sub(exp(0x02, 0xa0), 0x01)\n  dup4\n  and\n  swap1\n  dup2\n  or\n  dup3\n  sstore\n    /* \"contracts/Tether USD.sol\":9594:9637  OwnershipTransferred(address(0), msgSender) */\n  mload(0x40)\n    /* \"contracts/Tether USD.sol\":9565:9583  _owner = msgSender */\n  swap3\n  swap4\n  pop\n  swap2\n    /* \"contracts/Tether USD.sol\":9594:9637  OwnershipTransferred(address(0), msgSender) */\n  0x8be0079c531659141344cd1fd0a4f28419497f9722a3daafe3b4186f6b6457e0\n  swap1\n    /* \"contracts/Tether USD.sol\":9565:9571  _owner */\n  dup3\n  swap1\n    /* \"contracts/Tether USD.sol\":9594:9637  OwnershipTransferred(address(0), msgSender) */\n  log3\n  pop\n    /* \"contracts/Tether USD.sol\":11309:11329  _name = \"Tether USD\" */\n  0x40\n  dup1\n  mload\n  dup1\n  dup3\n  add\n  swap1\n  swap2\n  mstore\n  0x0a\n  dup1\n  dup3\n  mstore\n  0x5465746865722055534400000000000000000000000000000000000000000000\n  0x20\n  swap1\n  swap3\n  add\n  swap2\n  dup3\n  mstore\n  tag_10\n  swap2\n    /* \"contracts/Tether USD.sol\":11309:11314  _name */\n  0x06\n  swap2\n    /* \"contracts/Tether USD.sol\":11309:11329  _name = \"Tether USD\" */\n  tag_11\n  jump\t// in\ntag_10:\n  pop\n    /* \"contracts/Tether USD.sol\":11335:11351  _symbol = \"USDT\" */\n  0x40\n  dup1\n  mload\n  dup1\n  dup3\n  add\n  swap1\n  swap2\n  mstore\n  0x04\n  dup1\n  dup3\n  mstore\n  0x5553445400000000000000000000000000000000000000000000000000000000\n  0x20\n  swap1\n  swap3\n  add\n  swap2\n  dup3\n  mstore\n  tag_12\n  swap2\n    /* \"contracts/Tether USD.sol\":11335:11342  _symbol */\n  0x05\n  swap2\n    /* \"contracts/Tether USD.sol\":11335:11351  _symbol = \"USDT\" */\n  tag_11\n  jump\t// in\ntag_12:\n  pop\n    /* \"contracts/Tether USD.sol\":11357:11366  _decimals */\n  0x04\n    /* \"contracts/Tether USD.sol\":11357:11371  _decimals = 18 */\n  dup1\n  sload\n  not(0xff)\n  and\n    /* \"contracts/Tether USD.sol\":11369:11371  18 */\n  0x12\n    /* \"contracts/Tether USD.sol\":11357:11371  _decimals = 18 */\n  or\n  swap1\n  sstore\n    /* \"contracts/Tether USD.sol\":11392:11408  30000000 *10**18 */\n  0x18d0bf423c03d8de000000\n    /* \"contracts/Tether USD.sol\":11377:11389  _totalSupply */\n  0x03\n    /* \"contracts/Tether USD.sol\":11377:11408  _totalSupply = 30000000 *10**18 */\n  dup2\n  swap1\n  sstore\n    /* \"contracts/Tether USD.sol\":11424:11434  msg.sender */\n  caller\n    /* \"contracts/Tether USD.sol\":11357:11366  _decimals */\n  0x00\n    /* \"contracts/Tether USD.sol\":11414:11435  _balances[msg.sender] */\n  dup2\n  dup2\n  mstore\n    /* \"contracts/Tether USD.sol\":11357:11371  _decimals = 18 */\n  0x01\n    /* \"contracts/Tether USD.sol\":11414:11435  _balances[msg.sender] */\n  0x20\n  swap1\n  dup2\n  mstore\n  0x40\n  dup1\n  dup4\n  keccak256\n    /* \"contracts/Tether USD.sol\":11414:11450  _balances[msg.sender] = _totalSupply */\n  dup6\n  swap1\n  sstore\n    /* \"contracts/Tether USD.sol\":11462:11508  Transfer(address(0), msg.sender, _totalSupply) */\n  dup1\n  mload\n  swap5\n  dup6\n  mstore\n  mload\n    /* \"contracts/Tether USD.sol\":11424:11434  msg.sender */\n  swap3\n  swap4\n    /* \"contracts/Tether USD.sol\":11357:11366  _decimals */\n  swap2\n  swap3\n    /* \"contracts/Tether USD.sol\":11462:11508  Transfer(address(0), msg.sender, _totalSupply) */\n  0xddf252ad1be2c89b69c2b068fc378daa952ba7f163c4a11628f55a4df523b3ef\n  swap3\n  dup2\n  swap1\n  sub\n  swap1\n  swap2\n  add\n  swap1\n  log3\n    /* \"contracts/Tether USD.sol\":10968:18706  contract TetherUSD is Context, IORC20, Ownable {... */\n  jump(tag_13)\n    /* \"contracts/Tether USD.sol\":3595:3685  function _msgSender() internal view returns (address payable) {... */\ntag_8:\n    /* \"contracts/Tether USD.sol\":3670:3680  msg.sender */\n  caller\n    /* \"contracts/Tether USD.sol\":3595:3685  function _msgSender() internal view returns (address payable) {... */\ntag_14:\n  swap1\n  jump\t// out\n    /* \"contracts/Tether USD.sol\":10968:18706  contract TetherUSD is Context, IORC20, Ownable {... */\ntag_11:\n  dup3\n  dup1\n  sload\n  0x01\n  dup2\n  0x01\n  and\n  iszero\n  0x0100\n  mul\n  sub\n  and\n  0x02\n  swap1\n  div\n  swap1\n  0x00\n  mstore\n  keccak256(0x00, 0x20)\n  swap1\n  0x1f\n  add\n  0x20\n  swap1\n  div\n  dup2\n  add\n  swap3\n  dup3\n  0x1f\n  lt\n  tag_16\n  jumpi\n  dup1\n  mload\n  not(0xff)\n  and\n  dup4\n  dup1\n  add\n  or\n  dup6\n  sstore\n  jump(tag_18)\ntag_16:\n  dup3\n  dup1\n  add\n  0x01\n  add\n  dup6\n  sstore\n  dup3\n  iszero\n  tag_18\n  jumpi\n  swap2\n  dup3\n  add\ntag_17:\n  dup3\n  dup2\n  gt\n  iszero\n  tag_18\n  jumpi\n  dup3\n  mload\n  dup3\n  sstore\n  swap2\n  0x20\n  add\n  swap2\n  swap1\n  0x01\n  add\n  swap1\n  jump(tag_17)\ntag_18:\n  pop\n  tag_19\n  swap3\n  swap2\n  pop\n  tag_20\n  jump\t// in\ntag_19:\n  pop\n  swap1\n  jump\t// out\ntag_20:\n  tag_14\n  swap2\n  swap1\ntag_22:\n  dup1\n  dup3\n  gt\n  iszero\n  tag_19\n  jumpi\n  0x00\n  dup2\n  sstore\n  0x01\n  add\n  jump(tag_22)\ntag_13:\n  dataSize(sub_0)\n  dup1\n  dataOffset(sub_0)\n  0x00\n  codecopy\n  0x00\n  return\nstop\n\nsub_0: assembly {\n        /* \"contracts/Tether USD.sol\":10968:18706  contract TetherUSD is Context, IORC20, Ownable {... */\n      mstore(0x40, 0x80)\n      callvalue\n        /* \"--CODEGEN--\":8:17   */\n      dup1\n        /* \"--CODEGEN--\":5:7   */\n      iszero\n      tag_1\n      jumpi\n        /* \"--CODEGEN--\":30:31   */\n      0x00\n        /* \"--CODEGEN--\":27:28   */\n      dup1\n        /* \"--CODEGEN--\":20:32   */\n      revert\n        /* \"--CODEGEN--\":5:7   */\n    tag_1:\n        /* \"contracts/Tether USD.sol\":10968:18706  contract TetherUSD is Context, IORC20, Ownable {... */\n      pop\n      jumpi(tag_2, lt(calldatasize, 0x04))\n      calldataload(0x00)\n      0x0100000000000000000000000000000000000000000000000000000000\n      swap1\n      div\n      dup1\n      0x893d20e8\n      gt\n      tag_23\n      jumpi\n      dup1\n      0xa9059cbb\n      gt\n      tag_24\n      jumpi\n      dup1\n      0xa9059cbb\n      eq\n      tag_18\n      jumpi\n      dup1\n      0xb09f1266\n      eq\n      tag_19\n      jumpi\n      dup1\n      0xd28d8852\n      eq\n      tag_20\n      jumpi\n      dup1\n      0xdd62ed3e\n      eq\n      tag_21\n      jumpi\n      dup1\n      0xf2fde38b\n      eq\n      tag_22\n      jumpi\n      jump(tag_2)\n    tag_24:\n      dup1\n      0x893d20e8\n      eq\n      tag_13\n      jumpi\n      dup1\n      0x8da5cb5b\n      eq\n      tag_14\n      jumpi\n      dup1\n      0x95d89b41\n      eq\n      tag_15\n      jumpi\n      dup1\n      0xa0712d68\n      eq\n      tag_16\n      jumpi\n      dup1\n      0xa457c2d7\n      eq\n      tag_17\n      jumpi\n      jump(tag_2)\n    tag_23:\n      dup1\n      0x32424aa3\n      gt\n      tag_25\n      jumpi\n      dup1\n      0x32424aa3\n      eq\n      tag_8\n      jumpi\n      dup1\n      0x39509351\n      eq\n      tag_9\n      jumpi\n      dup1\n      0x42966c68\n      eq\n      tag_10\n      jumpi\n      dup1\n      0x70a08231\n      eq\n      tag_11\n      jumpi\n      dup1\n      0x715018a6\n      eq\n      tag_12\n      jumpi\n      jump(tag_2)\n    tag_25:\n      dup1\n      0x06fdde03\n      eq\n      tag_3\n      jumpi\n      dup1\n      0x095ea7b3\n      eq\n      tag_4\n      jumpi\n      dup1\n      0x18160ddd\n      eq\n      tag_5\n      jumpi\n      dup1\n      0x23b872dd\n      eq\n      tag_6\n      jumpi\n      dup1\n      0x313ce567\n      eq\n      tag_7\n      jumpi\n    tag_2:\n      0x00\n      dup1\n      revert\n        /* \"contracts/Tether USD.sol\":11953:12030  function name() external view returns (string memory) {... */\n    tag_3:\n      tag_26\n      tag_27\n      jump\t// in\n    tag_26:\n      0x40\n      dup1\n      mload\n      0x20\n      dup1\n      dup3\n      mstore\n      dup4\n      mload\n      dup2\n      dup4\n      add\n      mstore\n      dup4\n      mload\n      swap2\n      swap3\n      dup4\n      swap3\n      swap1\n      dup4\n      add\n      swap2\n      dup6\n      add\n      swap1\n      dup1\n      dup4\n      dup4\n      0x00\n        /* \"--CODEGEN--\":8:108   */\n    tag_28:\n        /* \"--CODEGEN--\":33:36   */\n      dup4\n        /* \"--CODEGEN--\":30:31   */\n      dup2\n        /* \"--CODEGEN--\":27:37   */\n      lt\n        /* \"--CODEGEN--\":8:108   */\n      iszero\n      tag_30\n      jumpi\n        /* \"--CODEGEN--\":90:101   */\n      dup2\n      dup2\n      add\n        /* \"--CODEGEN--\":84:102   */\n      mload\n        /* \"--CODEGEN--\":71:82   */\n      dup4\n      dup3\n      add\n        /* \"--CODEGEN--\":64:103   */\n      mstore\n        /* \"--CODEGEN--\":52:54   */\n      0x20\n        /* \"--CODEGEN--\":45:55   */\n      add\n        /* \"--CODEGEN--\":8:108   */\n      jump(tag_28)\n    tag_30:\n        /* \"--CODEGEN--\":12:26   */\n      pop\n        /* \"contracts/Tether USD.sol\":11953:12030  function name() external view returns (string memory) {... */\n      pop\n      pop\n      pop\n      swap1\n      pop\n      swap1\n      dup2\n      add\n      swap1\n      0x1f\n      and\n      dup1\n      iszero\n      tag_31\n      jumpi\n      dup1\n      dup3\n      sub\n      dup1\n      mload\n      0x01\n      dup4\n      0x20\n      sub\n      0x0100\n      exp\n      sub\n      not\n      and\n      dup2\n      mstore\n      0x20\n      add\n      swap2\n      pop\n    tag_31:\n      pop\n      swap3\n      pop\n      pop\n      pop\n      mload(0x40)\n      dup1\n      swap2\n      sub\n      swap1\n      return\n        /* \"contracts/Tether USD.sol\":12948:13089  function approve(address spender, uint256 amount) external returns (bool) {... */\n    tag_4:\n      tag_32\n      0x04\n      dup1\n      calldatasize\n      sub\n        /* \"--CODEGEN--\":13:15   */\n      0x40\n        /* \"--CODEGEN--\":8:11   */\n      dup2\n        /* \"--CODEGEN--\":5:16   */\n      lt\n        /* \"--CODEGEN--\":2:4   */\n      iszero\n      tag_33\n      jumpi\n        /* \"--CODEGEN--\":29:30   */\n      0x00\n        /* \"--CODEGEN--\":26:27   */\n      dup1\n        /* \"--CODEGEN--\":19:31   */\n      revert\n        /* \"--CODEGEN--\":2:4   */\n    tag_33:\n      pop\n      sub(exp(0x02, 0xa0), 0x01)\n        /* \"contracts/Tether USD.sol\":12948:13089  function approve(address spender, uint256 amount) external returns (bool) {... */\n      dup2\n      calldataload\n      and\n      swap1\n      0x20\n      add\n      calldataload\n      tag_34\n      jump\t// in\n    tag_32:\n      0x40\n      dup1\n      mload\n      swap2\n      iszero\n      iszero\n      dup3\n      mstore\n      mload\n      swap1\n      dup2\n      swap1\n      sub\n      0x20\n      add\n      swap1\n      return\n        /* \"contracts/Tether USD.sol\":12081:12166  function totalSupply() external view returns (uint256) {... */\n    tag_5:\n      tag_35\n      tag_36\n      jump\t// in\n    tag_35:\n      0x40\n      dup1\n      mload\n      swap2\n      dup3\n      mstore\n      mload\n      swap1\n      dup2\n      swap1\n      sub\n      0x20\n      add\n      swap1\n      return\n        /* \"contracts/Tether USD.sol\":13520:13808  function transferFrom(address sender, address recipient, uint256 amount) external returns (bool) {... */\n    tag_6:\n      tag_32\n      0x04\n      dup1\n      calldatasize\n      sub\n        /* \"--CODEGEN--\":13:15   */\n      0x60\n        /* \"--CODEGEN--\":8:11   */\n      dup2\n        /* \"--CODEGEN--\":5:16   */\n      lt\n        /* \"--CODEGEN--\":2:4   */\n      iszero\n      tag_38\n      jumpi\n        /* \"--CODEGEN--\":29:30   */\n      0x00\n        /* \"--CODEGEN--\":26:27   */\n      dup1\n        /* \"--CODEGEN--\":19:31   */\n      revert\n        /* \"--CODEGEN--\":2:4   */\n    tag_38:\n      pop\n      sub(exp(0x02, 0xa0), 0x01)\n        /* \"contracts/Tether USD.sol\":13520:13808  function transferFrom(address sender, address recipient, uint256 amount) external returns (bool) {... */\n      dup2\n      calldataload\n      dup2\n      and\n      swap2\n      0x20\n      dup2\n      add\n      calldataload\n      swap1\n      swap2\n      and\n      swap1\n      0x40\n      add\n      calldataload\n      tag_39\n      jump\t// in\n        /* \"contracts/Tether USD.sol\":11695:11772  function decimals() external view returns (uint8) {... */\n    tag_7:\n      tag_40\n      tag_41\n      jump\t// in\n    tag_40:\n      0x40\n      dup1\n      mload\n      0xff\n      swap1\n      swap3\n      and\n      dup3\n      mstore\n      mload\n      swap1\n      dup2\n      swap1\n      sub\n      0x20\n      add\n      swap1\n      return\n        /* \"contracts/Tether USD.sol\":11207:11229  uint8 public _decimals */\n    tag_8:\n      tag_40\n      tag_43\n      jump\t// in\n        /* \"contracts/Tether USD.sol\":14176:14373  function increaseAllowance(address spender, uint256 addedValue) public returns (bool) {... */\n    tag_9:\n      tag_32\n      0x04\n      dup1\n      calldatasize\n      sub\n        /* \"--CODEGEN--\":13:15   */\n      0x40\n        /* \"--CODEGEN--\":8:11   */\n      dup2\n        /* \"--CODEGEN--\":5:16   */\n      lt\n        /* \"--CODEGEN--\":2:4   */\n      iszero\n      tag_45\n      jumpi\n        /* \"--CODEGEN--\":29:30   */\n      0x00\n        /* \"--CODEGEN--\":26:27   */\n      dup1\n        /* \"--CODEGEN--\":19:31   */\n      revert\n        /* \"--CODEGEN--\":2:4   */\n    tag_45:\n      pop\n      sub(exp(0x02, 0xa0), 0x01)\n        /* \"contracts/Tether USD.sol\":14176:14373  function increaseAllowance(address spender, uint256 addedValue) public returns (bool) {... */\n      dup2\n      calldataload\n      and\n      swap1\n      0x20\n      add\n      calldataload\n      tag_46\n      jump\t// in\n        /* \"contracts/Tether USD.sol\":15464:15571  function burn(uint256 amount) public returns (bool) {... */\n    tag_10:\n      tag_32\n      0x04\n      dup1\n      calldatasize\n      sub\n        /* \"--CODEGEN--\":13:15   */\n      0x20\n        /* \"--CODEGEN--\":8:11   */\n      dup2\n        /* \"--CODEGEN--\":5:16   */\n      lt\n        /* \"--CODEGEN--\":2:4   */\n      iszero\n      tag_48\n      jumpi\n        /* \"--CODEGEN--\":29:30   */\n      0x00\n        /* \"--CODEGEN--\":26:27   */\n      dup1\n        /* \"--CODEGEN--\":19:31   */\n      revert\n        /* \"--CODEGEN--\":2:4   */\n    tag_48:\n      pop\n        /* \"contracts/Tether USD.sol\":15464:15571  function burn(uint256 amount) public returns (bool) {... */\n      calldataload\n      tag_49\n      jump\t// in\n        /* \"contracts/Tether USD.sol\":12215:12319  function balanceOf(address account) external view returns (uint256) {... */\n    tag_11:\n      tag_35\n      0x04\n      dup1\n      calldatasize\n      sub\n        /* \"--CODEGEN--\":13:15   */\n      0x20\n        /* \"--CODEGEN--\":8:11   */\n      dup2\n        /* \"--CODEGEN--\":5:16   */\n      lt\n        /* \"--CODEGEN--\":2:4   */\n      iszero\n      tag_51\n      jumpi\n        /* \"--CODEGEN--\":29:30   */\n      0x00\n        /* \"--CODEGEN--\":26:27   */\n      dup1\n        /* \"--CODEGEN--\":19:31   */\n      revert\n        /* \"--CODEGEN--\":2:4   */\n    tag_51:\n      pop\n        /* \"contracts/Tether USD.sol\":12215:12319  function balanceOf(address account) external view returns (uint256) {... */\n      calldataload\n      sub(exp(0x02, 0xa0), 0x01)\n      and\n      tag_52\n      jump\t// in\n        /* \"contracts/Tether USD.sol\":10293:10420  function renounceOwnership() public onlyOwner {... */\n    tag_12:\n      tag_53\n      tag_54\n      jump\t// in\n    tag_53:\n      stop\n        /* \"contracts/Tether USD.sol\":11564:11641  function getOwner() external view returns (address) {... */\n    tag_13:\n      tag_55\n      tag_56\n      jump\t// in\n    tag_55:\n      0x40\n      dup1\n      mload\n      sub(exp(0x02, 0xa0), 0x01)\n      swap1\n      swap3\n      and\n      dup3\n      mstore\n      mload\n      swap1\n      dup2\n      swap1\n      sub\n      0x20\n      add\n      swap1\n      return\n        /* \"contracts/Tether USD.sol\":9710:9781  function owner() public view returns (address) {... */\n    tag_14:\n      tag_55\n      tag_58\n      jump\t// in\n        /* \"contracts/Tether USD.sol\":11824:11905  function symbol() external view returns (string memory) {... */\n    tag_15:\n      tag_26\n      tag_60\n      jump\t// in\n        /* \"contracts/Tether USD.sol\":15267:15384  function mint(uint256 amount) public onlyOwner returns (bool) {... */\n    tag_16:\n      tag_32\n      0x04\n      dup1\n      calldatasize\n      sub\n        /* \"--CODEGEN--\":13:15   */\n      0x20\n        /* \"--CODEGEN--\":8:11   */\n      dup2\n        /* \"--CODEGEN--\":5:16   */\n      lt\n        /* \"--CODEGEN--\":2:4   */\n      iszero\n      tag_66\n      jumpi\n        /* \"--CODEGEN--\":29:30   */\n      0x00\n        /* \"--CODEGEN--\":26:27   */\n      dup1\n        /* \"--CODEGEN--\":19:31   */\n      revert\n        /* \"--CODEGEN--\":2:4   */\n    tag_66:\n      pop\n        /* \"contracts/Tether USD.sol\":15267:15384  function mint(uint256 amount) public onlyOwner returns (bool) {... */\n      calldataload\n      tag_67\n      jump\t// in\n        /* \"contracts/Tether USD.sol\":14829:15077  function decreaseAllowance(address spender, uint256 subtractedValue) public returns (bool) {... */\n    tag_17:\n      tag_32\n      0x04\n      dup1\n      calldatasize\n      sub\n        /* \"--CODEGEN--\":13:15   */\n      0x40\n        /* \"--CODEGEN--\":8:11   */\n      dup2\n        /* \"--CODEGEN--\":5:16   */\n      lt\n        /* \"--CODEGEN--\":2:4   */\n      iszero\n      tag_69\n      jumpi\n        /* \"--CODEGEN--\":29:30   */\n      0x00\n        /* \"--CODEGEN--\":26:27   */\n      dup1\n        /* \"--CODEGEN--\":19:31   */\n      revert\n        /* \"--CODEGEN--\":2:4   */\n    tag_69:\n      pop\n      sub(exp(0x02, 0xa0), 0x01)\n        /* \"contracts/Tether USD.sol\":14829:15077  function decreaseAllowance(address spender, uint256 subtractedValue) public returns (bool) {... */\n      dup2\n      calldataload\n      and\n      swap1\n      0x20\n      add\n      calldataload\n      tag_70\n      jump\t// in\n        /* \"contracts/Tether USD.sol\":12503:12650  function transfer(address recipient, uint256 amount) external returns (bool) {... */\n    tag_18:\n      tag_32\n      0x04\n      dup1\n      calldatasize\n      sub\n        /* \"--CODEGEN--\":13:15   */\n      0x40\n        /* \"--CODEGEN--\":8:11   */\n      dup2\n        /* \"--CODEGEN--\":5:16   */\n      lt\n        /* \"--CODEGEN--\":2:4   */\n      iszero\n      tag_72\n      jumpi\n        /* \"--CODEGEN--\":29:30   */\n      0x00\n        /* \"--CODEGEN--\":26:27   */\n      dup1\n        /* \"--CODEGEN--\":19:31   */\n      revert\n        /* \"--CODEGEN--\":2:4   */\n    tag_72:\n      pop\n      sub(exp(0x02, 0xa0), 0x01)\n        /* \"contracts/Tether USD.sol\":12503:12650  function transfer(address recipient, uint256 amount) external returns (bool) {... */\n      dup2\n      calldataload\n      and\n      swap1\n      0x20\n      add\n      calldataload\n      tag_73\n      jump\t// in\n        /* \"contracts/Tether USD.sol\":11233:11254  string public _symbol */\n    tag_19:\n      tag_26\n      tag_75\n      jump\t// in\n        /* \"contracts/Tether USD.sol\":11258:11277  string public _name */\n    tag_20:\n      tag_26\n      tag_81\n      jump\t// in\n        /* \"contracts/Tether USD.sol\":12699:12827  function allowance(address owner, address spender) external view returns (uint256) {... */\n    tag_21:\n      tag_35\n      0x04\n      dup1\n      calldatasize\n      sub\n        /* \"--CODEGEN--\":13:15   */\n      0x40\n        /* \"--CODEGEN--\":8:11   */\n      dup2\n        /* \"--CODEGEN--\":5:16   */\n      lt\n        /* \"--CODEGEN--\":2:4   */\n      iszero\n      tag_87\n      jumpi\n        /* \"--CODEGEN--\":29:30   */\n      0x00\n        /* \"--CODEGEN--\":26:27   */\n      dup1\n        /* \"--CODEGEN--\":19:31   */\n      revert\n        /* \"--CODEGEN--\":2:4   */\n    tag_87:\n      pop\n      sub(exp(0x02, 0xa0), 0x01)\n        /* \"contracts/Tether USD.sol\":12699:12827  function allowance(address owner, address spender) external view returns (uint256) {... */\n      dup2\n      calldataload\n      dup2\n      and\n      swap2\n      0x20\n      add\n      calldataload\n      and\n      tag_88\n      jump\t// in\n        /* \"contracts/Tether USD.sol\":10559:10660  function transferOwnership(address newOwner) public onlyOwner {... */\n    tag_22:\n      tag_53\n      0x04\n      dup1\n      calldatasize\n      sub\n        /* \"--CODEGEN--\":13:15   */\n      0x20\n        /* \"--CODEGEN--\":8:11   */\n      dup2\n        /* \"--CODEGEN--\":5:16   */\n      lt\n        /* \"--CODEGEN--\":2:4   */\n      iszero\n      tag_90\n      jumpi\n        /* \"--CODEGEN--\":29:30   */\n      0x00\n        /* \"--CODEGEN--\":26:27   */\n      dup1\n        /* \"--CODEGEN--\":19:31   */\n      revert\n        /* \"--CODEGEN--\":2:4   */\n    tag_90:\n      pop\n        /* \"contracts/Tether USD.sol\":10559:10660  function transferOwnership(address newOwner) public onlyOwner {... */\n      calldataload\n      sub(exp(0x02, 0xa0), 0x01)\n      and\n      tag_91\n      jump\t// in\n        /* \"contracts/Tether USD.sol\":11953:12030  function name() external view returns (string memory) {... */\n    tag_27:\n        /* \"contracts/Tether USD.sol\":12020:12025  _name */\n      0x06\n        /* \"contracts/Tether USD.sol\":12013:12025  return _name */\n      dup1\n      sload\n      0x40\n      dup1\n      mload\n      0x20\n      0x1f\n      0x02\n      not(0x00)\n      0x0100\n      0x01\n      dup9\n      and\n      iszero\n      mul\n      add\n      swap1\n      swap6\n      and\n      swap5\n      swap1\n      swap5\n      div\n      swap4\n      dup5\n      add\n      dup2\n      swap1\n      div\n      dup2\n      mul\n      dup3\n      add\n      dup2\n      add\n      swap1\n      swap3\n      mstore\n      dup3\n      dup2\n      mstore\n        /* \"contracts/Tether USD.sol\":11992:12005  string memory */\n      0x60\n      swap4\n        /* \"contracts/Tether USD.sol\":12013:12025  return _name */\n      swap1\n      swap3\n        /* \"contracts/Tether USD.sol\":12020:12025  _name */\n      swap1\n      swap2\n        /* \"contracts/Tether USD.sol\":12013:12025  return _name */\n      dup4\n      add\n        /* \"contracts/Tether USD.sol\":12020:12025  _name */\n      dup3\n        /* \"contracts/Tether USD.sol\":12013:12025  return _name */\n      dup3\n      dup1\n      iszero\n      tag_93\n      jumpi\n      dup1\n      0x1f\n      lt\n      tag_94\n      jumpi\n      0x0100\n      dup1\n      dup4\n      sload\n      div\n      mul\n      dup4\n      mstore\n      swap2\n      0x20\n      add\n      swap2\n      jump(tag_93)\n    tag_94:\n      dup3\n      add\n      swap2\n      swap1\n      0x00\n      mstore\n      keccak256(0x00, 0x20)\n      swap1\n    tag_95:\n      dup2\n      sload\n      dup2\n      mstore\n      swap1\n      0x01\n      add\n      swap1\n      0x20\n      add\n      dup1\n      dup4\n      gt\n      tag_95\n      jumpi\n      dup3\n      swap1\n      sub\n      0x1f\n      and\n      dup3\n      add\n      swap2\n    tag_93:\n      pop\n      pop\n      pop\n      pop\n      pop\n      swap1\n      pop\n        /* \"contracts/Tether USD.sol\":11953:12030  function name() external view returns (string memory) {... */\n      swap1\n      jump\t// out\n        /* \"contracts/Tether USD.sol\":12948:13089  function approve(address spender, uint256 amount) external returns (bool) {... */\n    tag_34:\n        /* \"contracts/Tether USD.sol\":13016:13020  bool */\n      0x00\n        /* \"contracts/Tether USD.sol\":13028:13067  _approve(_msgSender(), spender, amount) */\n      tag_97\n        /* \"contracts/Tether USD.sol\":13037:13049  _msgSender() */\n      tag_98\n        /* \"contracts/Tether USD.sol\":13037:13047  _msgSender */\n      tag_99\n        /* \"contracts/Tether USD.sol\":13037:13049  _msgSender() */\n      jump\t// in\n    tag_98:\n        /* \"contracts/Tether USD.sol\":13051:13058  spender */\n      dup5\n        /* \"contracts/Tether USD.sol\":13060:13066  amount */\n      dup5\n        /* \"contracts/Tether USD.sol\":13028:13036  _approve */\n      tag_100\n        /* \"contracts/Tether USD.sol\":13028:13067  _approve(_msgSender(), spender, amount) */\n      jump\t// in\n    tag_97:\n      pop\n        /* \"contracts/Tether USD.sol\":13080:13084  true */\n      0x01\n        /* \"contracts/Tether USD.sol\":12948:13089  function approve(address spender, uint256 amount) external returns (bool) {... */\n      swap3\n      swap2\n      pop\n      pop\n      jump\t// out\n        /* \"contracts/Tether USD.sol\":12081:12166  function totalSupply() external view returns (uint256) {... */\n    tag_36:\n        /* \"contracts/Tether USD.sol\":12149:12161  _totalSupply */\n      sload(0x03)\n        /* \"contracts/Tether USD.sol\":12081:12166  function totalSupply() external view returns (uint256) {... */\n      swap1\n      jump\t// out\n        /* \"contracts/Tether USD.sol\":13520:13808  function transferFrom(address sender, address recipient, uint256 amount) external returns (bool) {... */\n    tag_39:\n        /* \"contracts/Tether USD.sol\":13611:13615  bool */\n      0x00\n        /* \"contracts/Tether USD.sol\":13623:13659  _transfer(sender, recipient, amount) */\n      tag_103\n        /* \"contracts/Tether USD.sol\":13633:13639  sender */\n      dup5\n        /* \"contracts/Tether USD.sol\":13641:13650  recipient */\n      dup5\n        /* \"contracts/Tether USD.sol\":13652:13658  amount */\n      dup5\n        /* \"contracts/Tether USD.sol\":13623:13632  _transfer */\n      tag_104\n        /* \"contracts/Tether USD.sol\":13623:13659  _transfer(sender, recipient, amount) */\n      jump\t// in\n    tag_103:\n        /* \"contracts/Tether USD.sol\":13665:13786  _approve(sender, _msgSender(), _allowances[sender][_msgSender()].sub(amount, \"ORC20: transfer amount exceeds allowance\")) */\n      tag_105\n        /* \"contracts/Tether USD.sol\":13674:13680  sender */\n      dup5\n        /* \"contracts/Tether USD.sol\":13682:13694  _msgSender() */\n      tag_106\n        /* \"contracts/Tether USD.sol\":13682:13692  _msgSender */\n      tag_99\n        /* \"contracts/Tether USD.sol\":13682:13694  _msgSender() */\n      jump\t// in\n    tag_106:\n        /* \"contracts/Tether USD.sol\":13696:13785  _allowances[sender][_msgSender()].sub(amount, \"ORC20: transfer amount exceeds allowance\") */\n      tag_107\n        /* \"contracts/Tether USD.sol\":13734:13740  amount */\n      dup6\n        /* \"contracts/Tether USD.sol\":13696:13785  _allowances[sender][_msgSender()].sub(amount, \"ORC20: transfer amount exceeds allowance\") */\n      mload(0x40)\n      dup1\n      0x60\n      add\n      0x40\n      mstore\n      dup1\n      0x28\n      dup2\n      mstore\n      0x20\n      add\n      data_3d234848b1165c1d44ee096354d96b78ee9aa8ef9f4dd8fb59ed7216dbda102f\n      0x28\n      swap2\n      codecopy\n      sub(exp(0x02, 0xa0), 0x01)\n        /* \"contracts/Tether USD.sol\":13696:13715  _allowances[sender] */\n      dup11\n      and\n      0x00\n      swap1\n      dup2\n      mstore\n        /* \"contracts/Tether USD.sol\":13696:13707  _allowances */\n      0x02\n        /* \"contracts/Tether USD.sol\":13696:13715  _allowances[sender] */\n      0x20\n      mstore\n      0x40\n      dup2\n      keccak256\n      swap1\n        /* \"contracts/Tether USD.sol\":13716:13728  _msgSender() */\n      tag_108\n        /* \"contracts/Tether USD.sol\":13716:13726  _msgSender */\n      tag_99\n        /* \"contracts/Tether USD.sol\":13716:13728  _msgSender() */\n      jump\t// in\n    tag_108:\n      sub(exp(0x02, 0xa0), 0x01)\n        /* \"contracts/Tether USD.sol\":13696:13729  _allowances[sender][_msgSender()] */\n      and\n      dup2\n      mstore\n      0x20\n      dup2\n      add\n      swap2\n      swap1\n      swap2\n      mstore\n      0x40\n      add\n      0x00\n      keccak256\n      sload\n      swap2\n        /* \"contracts/Tether USD.sol\":13696:13785  _allowances[sender][_msgSender()].sub(amount, \"ORC20: transfer amount exceeds allowance\") */\n      swap1\n      0xffffffff\n        /* \"contracts/Tether USD.sol\":13696:13733  _allowances[sender][_msgSender()].sub */\n      tag_109\n        /* \"contracts/Tether USD.sol\":13696:13785  _allowances[sender][_msgSender()].sub(amount, \"ORC20: transfer amount exceeds allowance\") */\n      and\n      jump\t// in\n    tag_107:\n        /* \"contracts/Tether USD.sol\":13665:13673  _approve */\n      tag_100\n        /* \"contracts/Tether USD.sol\":13665:13786  _approve(sender, _msgSender(), _allowances[sender][_msgSender()].sub(amount, \"ORC20: transfer amount exceeds allowance\")) */\n      jump\t// in\n    tag_105:\n      pop\n        /* \"contracts/Tether USD.sol\":13799:13803  true */\n      0x01\n        /* \"contracts/Tether USD.sol\":13520:13808  function transferFrom(address sender, address recipient, uint256 amount) external returns (bool) {... */\n      swap4\n      swap3\n      pop\n      pop\n      pop\n      jump\t// out\n        /* \"contracts/Tether USD.sol\":11695:11772  function decimals() external view returns (uint8) {... */\n    tag_41:\n        /* \"contracts/Tether USD.sol\":11758:11767  _decimals */\n      and(0xff, sload(0x04))\n        /* \"contracts/Tether USD.sol\":11695:11772  function decimals() external view returns (uint8) {... */\n      swap1\n      jump\t// out\n        /* \"contracts/Tether USD.sol\":11207:11229  uint8 public _decimals */\n    tag_43:\n      and(0xff, sload(0x04))\n      dup2\n      jump\t// out\n        /* \"contracts/Tether USD.sol\":14176:14373  function increaseAllowance(address spender, uint256 addedValue) public returns (bool) {... */\n    tag_46:\n        /* \"contracts/Tether USD.sol\":14256:14260  bool */\n      0x00\n        /* \"contracts/Tether USD.sol\":14268:14351  _approve(_msgSender(), spender, _allowances[_msgSender()][spender].add(addedValue)) */\n      tag_97\n        /* \"contracts/Tether USD.sol\":14277:14289  _msgSender() */\n      tag_113\n        /* \"contracts/Tether USD.sol\":14277:14287  _msgSender */\n      tag_99\n        /* \"contracts/Tether USD.sol\":14277:14289  _msgSender() */\n      jump\t// in\n    tag_113:\n        /* \"contracts/Tether USD.sol\":14291:14298  spender */\n      dup5\n        /* \"contracts/Tether USD.sol\":14300:14350  _allowances[_msgSender()][spender].add(addedValue) */\n      tag_107\n        /* \"contracts/Tether USD.sol\":14339:14349  addedValue */\n      dup6\n        /* \"contracts/Tether USD.sol\":14300:14311  _allowances */\n      0x02\n        /* \"contracts/Tether USD.sol\":14300:14325  _allowances[_msgSender()] */\n      0x00\n        /* \"contracts/Tether USD.sol\":14312:14324  _msgSender() */\n      tag_115\n        /* \"contracts/Tether USD.sol\":14312:14322  _msgSender */\n      tag_99\n        /* \"contracts/Tether USD.sol\":14312:14324  _msgSender() */\n      jump\t// in\n    tag_115:\n      sub(exp(0x02, 0xa0), 0x01)\n        /* \"contracts/Tether USD.sol\":14300:14325  _allowances[_msgSender()] */\n      swap1\n      dup2\n      and\n      dup3\n      mstore\n      0x20\n      dup1\n      dup4\n      add\n      swap4\n      swap1\n      swap4\n      mstore\n      0x40\n      swap2\n      dup3\n      add\n      0x00\n      swap1\n      dup2\n      keccak256\n        /* \"contracts/Tether USD.sol\":14300:14334  _allowances[_msgSender()][spender] */\n      swap2\n      dup13\n      and\n      dup2\n      mstore\n      swap3\n      mstore\n      swap1\n      keccak256\n      sload\n      swap1\n        /* \"contracts/Tether USD.sol\":14300:14350  _allowances[_msgSender()][spender].add(addedValue) */\n      0xffffffff\n        /* \"contracts/Tether USD.sol\":14300:14338  _allowances[_msgSender()][spender].add */\n      tag_116\n        /* \"contracts/Tether USD.sol\":14300:14350  _allowances[_msgSender()][spender].add(addedValue) */\n      and\n      jump\t// in\n        /* \"contracts/Tether USD.sol\":15464:15571  function burn(uint256 amount) public returns (bool) {... */\n    tag_49:\n        /* \"contracts/Tether USD.sol\":15510:15514  bool */\n      0x00\n        /* \"contracts/Tether USD.sol\":15522:15549  _burn(_msgSender(), amount) */\n      tag_118\n        /* \"contracts/Tether USD.sol\":15528:15540  _msgSender() */\n      tag_119\n        /* \"contracts/Tether USD.sol\":15528:15538  _msgSender */\n      tag_99\n        /* \"contracts/Tether USD.sol\":15528:15540  _msgSender() */\n      jump\t// in\n    tag_119:\n        /* \"contracts/Tether USD.sol\":15542:15548  amount */\n      dup4\n        /* \"contracts/Tether USD.sol\":15522:15527  _burn */\n      tag_120\n        /* \"contracts/Tether USD.sol\":15522:15549  _burn(_msgSender(), amount) */\n      jump\t// in\n    tag_118:\n      pop\n        /* \"contracts/Tether USD.sol\":15562:15566  true */\n      0x01\n        /* \"contracts/Tether USD.sol\":15464:15571  function burn(uint256 amount) public returns (bool) {... */\n      swap2\n      swap1\n      pop\n      jump\t// out\n        /* \"contracts/Tether USD.sol\":12215:12319  function balanceOf(address account) external view returns (uint256) {... */\n    tag_52:\n      sub(exp(0x02, 0xa0), 0x01)\n        /* \"contracts/Tether USD.sol\":12296:12314  _balances[account] */\n      and\n        /* \"contracts/Tether USD.sol\":12274:12281  uint256 */\n      0x00\n        /* \"contracts/Tether USD.sol\":12296:12314  _balances[account] */\n      swap1\n      dup2\n      mstore\n        /* \"contracts/Tether USD.sol\":12296:12305  _balances */\n      0x01\n        /* \"contracts/Tether USD.sol\":12296:12314  _balances[account] */\n      0x20\n      mstore\n      0x40\n      swap1\n      keccak256\n      sload\n      swap1\n        /* \"contracts/Tether USD.sol\":12215:12319  function balanceOf(address account) external view returns (uint256) {... */\n      jump\t// out\n        /* \"contracts/Tether USD.sol\":10293:10420  function renounceOwnership() public onlyOwner {... */\n    tag_54:\n        /* \"contracts/Tether USD.sol\":9906:9918  _msgSender() */\n      tag_123\n        /* \"contracts/Tether USD.sol\":9906:9916  _msgSender */\n      tag_99\n        /* \"contracts/Tether USD.sol\":9906:9918  _msgSender() */\n      jump\t// in\n    tag_123:\n        /* \"contracts/Tether USD.sol\":9896:9902  _owner */\n      sload(0x00)\n      sub(exp(0x02, 0xa0), 0x01)\n      swap1\n      dup2\n      and\n        /* \"contracts/Tether USD.sol\":9896:9918  _owner == _msgSender() */\n      swap2\n      and\n      eq\n        /* \"contracts/Tether USD.sol\":9888:9955  require(_owner == _msgSender(), \"Ownable: caller is not the owner\") */\n      tag_124\n      jumpi\n      0x40\n      dup1\n      mload\n      mul(0x461bcd, exp(0x02, 0xe5))\n      dup2\n      mstore\n      0x20\n      0x04\n      dup3\n      add\n      dup2\n      swap1\n      mstore\n      0x24\n      dup3\n      add\n      mstore\n      0x4f776e61626c653a2063616c6c6572206973206e6f7420746865206f776e6572\n      0x44\n      dup3\n      add\n      mstore\n      swap1\n      mload\n      swap1\n      dup2\n      swap1\n      sub\n      0x64\n      add\n      swap1\n      revert\n    tag_124:\n        /* \"contracts/Tether USD.sol\":10387:10388  0 */\n      0x00\n        /* \"contracts/Tether USD.sol\":10371:10377  _owner */\n      dup1\n      sload\n        /* \"contracts/Tether USD.sol\":10350:10390  OwnershipTransferred(_owner, address(0)) */\n      mload(0x40)\n      sub(exp(0x02, 0xa0), 0x01)\n        /* \"contracts/Tether USD.sol\":10371:10377  _owner */\n      swap1\n      swap2\n      and\n      swap1\n        /* \"contracts/Tether USD.sol\":10350:10390  OwnershipTransferred(_owner, address(0)) */\n      0x8be0079c531659141344cd1fd0a4f28419497f9722a3daafe3b4186f6b6457e0\n      swap1\n        /* \"contracts/Tether USD.sol\":10387:10388  0 */\n      dup4\n      swap1\n        /* \"contracts/Tether USD.sol\":10350:10390  OwnershipTransferred(_owner, address(0)) */\n      log3\n        /* \"contracts/Tether USD.sol\":10413:10414  0 */\n      0x00\n        /* \"contracts/Tether USD.sol\":10396:10415  _owner = address(0) */\n      dup1\n      sload\n      not(0xffffffffffffffffffffffffffffffffffffffff)\n      and\n      swap1\n      sstore\n        /* \"contracts/Tether USD.sol\":10293:10420  function renounceOwnership() public onlyOwner {... */\n      jump\t// out\n        /* \"contracts/Tether USD.sol\":11564:11641  function getOwner() external view returns (address) {... */\n    tag_56:\n        /* \"contracts/Tether USD.sol\":11607:11614  address */\n      0x00\n        /* \"contracts/Tether USD.sol\":11629:11636  owner() */\n      tag_127\n        /* \"contracts/Tether USD.sol\":11629:11634  owner */\n      tag_58\n        /* \"contracts/Tether USD.sol\":11629:11636  owner() */\n      jump\t// in\n    tag_127:\n        /* \"contracts/Tether USD.sol\":11622:11636  return owner() */\n      swap1\n      pop\n        /* \"contracts/Tether USD.sol\":11564:11641  function getOwner() external view returns (address) {... */\n      swap1\n      jump\t// out\n        /* \"contracts/Tether USD.sol\":9710:9781  function owner() public view returns (address) {... */\n    tag_58:\n        /* \"contracts/Tether USD.sol\":9748:9755  address */\n      0x00\n        /* \"contracts/Tether USD.sol\":9770:9776  _owner */\n      sload\n      sub(exp(0x02, 0xa0), 0x01)\n      and\n        /* \"contracts/Tether USD.sol\":9710:9781  function owner() public view returns (address) {... */\n      swap1\n      jump\t// out\n        /* \"contracts/Tether USD.sol\":11824:11905  function symbol() external view returns (string memory) {... */\n    tag_60:\n        /* \"contracts/Tether USD.sol\":11893:11900  _symbol */\n      0x05\n        /* \"contracts/Tether USD.sol\":11886:11900  return _symbol */\n      dup1\n      sload\n      0x40\n      dup1\n      mload\n      0x20\n      0x1f\n      0x02\n      not(0x00)\n      0x0100\n      0x01\n      dup9\n      and\n      iszero\n      mul\n      add\n      swap1\n      swap6\n      and\n      swap5\n      swap1\n      swap5\n      div\n      swap4\n      dup5\n      add\n      dup2\n      swap1\n      div\n      dup2\n      mul\n      dup3\n      add\n      dup2\n      add\n      swap1\n      swap3\n      mstore\n      dup3\n      dup2\n      mstore\n        /* \"contracts/Tether USD.sol\":11865:11878  string memory */\n      0x60\n      swap4\n        /* \"contracts/Tether USD.sol\":11886:11900  return _symbol */\n      swap1\n      swap3\n        /* \"contracts/Tether USD.sol\":11893:11900  _symbol */\n      swap1\n      swap2\n        /* \"contracts/Tether USD.sol\":11886:11900  return _symbol */\n      dup4\n      add\n        /* \"contracts/Tether USD.sol\":11893:11900  _symbol */\n      dup3\n        /* \"contracts/Tether USD.sol\":11886:11900  return _symbol */\n      dup3\n      dup1\n      iszero\n      tag_93\n      jumpi\n      dup1\n      0x1f\n      lt\n      tag_94\n      jumpi\n      0x0100\n      dup1\n      dup4\n      sload\n      div\n      mul\n      dup4\n      mstore\n      swap2\n      0x20\n      add\n      swap2\n      jump(tag_93)\n        /* \"contracts/Tether USD.sol\":15267:15384  function mint(uint256 amount) public onlyOwner returns (bool) {... */\n    tag_67:\n        /* \"contracts/Tether USD.sol\":15323:15327  bool */\n      0x00\n        /* \"contracts/Tether USD.sol\":9906:9918  _msgSender() */\n      tag_134\n        /* \"contracts/Tether USD.sol\":9906:9916  _msgSender */\n      tag_99\n        /* \"contracts/Tether USD.sol\":9906:9918  _msgSender() */\n      jump\t// in\n    tag_134:\n        /* \"contracts/Tether USD.sol\":9896:9902  _owner */\n      sload(0x00)\n      sub(exp(0x02, 0xa0), 0x01)\n      swap1\n      dup2\n      and\n        /* \"contracts/Tether USD.sol\":9896:9918  _owner == _msgSender() */\n      swap2\n      and\n      eq\n        /* \"contracts/Tether USD.sol\":9888:9955  require(_owner == _msgSender(), \"Ownable: caller is not the owner\") */\n      tag_135\n      jumpi\n      0x40\n      dup1\n      mload\n      mul(0x461bcd, exp(0x02, 0xe5))\n      dup2\n      mstore\n      0x20\n      0x04\n      dup3\n      add\n      dup2\n      swap1\n      mstore\n      0x24\n      dup3\n      add\n      mstore\n      0x4f776e61626c653a2063616c6c6572206973206e6f7420746865206f776e6572\n      0x44\n      dup3\n      add\n      mstore\n      swap1\n      mload\n      swap1\n      dup2\n      swap1\n      sub\n      0x64\n      add\n      swap1\n      revert\n    tag_135:\n        /* \"contracts/Tether USD.sol\":15335:15362  _mint(_msgSender(), amount) */\n      tag_118\n        /* \"contracts/Tether USD.sol\":15341:15353  _msgSender() */\n      tag_138\n        /* \"contracts/Tether USD.sol\":15341:15351  _msgSender */\n      tag_99\n        /* \"contracts/Tether USD.sol\":15341:15353  _msgSender() */\n      jump\t// in\n    tag_138:\n        /* \"contracts/Tether USD.sol\":15355:15361  amount */\n      dup4\n        /* \"contracts/Tether USD.sol\":15335:15340  _mint */\n      tag_139\n        /* \"contracts/Tether USD.sol\":15335:15362  _mint(_msgSender(), amount) */\n      jump\t// in\n        /* \"contracts/Tether USD.sol\":14829:15077  function decreaseAllowance(address spender, uint256 subtractedValue) public returns (bool) {... */\n    tag_70:\n        /* \"contracts/Tether USD.sol\":14914:14918  bool */\n      0x00\n        /* \"contracts/Tether USD.sol\":14926:15055  _approve(_msgSender(), spender, _allowances[_msgSender()][spender].sub(subtractedValue, \"ORC20: decreased allowance below zero\")) */\n      tag_97\n        /* \"contracts/Tether USD.sol\":14935:14947  _msgSender() */\n      tag_142\n        /* \"contracts/Tether USD.sol\":14935:14945  _msgSender */\n      tag_99\n        /* \"contracts/Tether USD.sol\":14935:14947  _msgSender() */\n      jump\t// in\n    tag_142:\n        /* \"contracts/Tether USD.sol\":14949:14956  spender */\n      dup5\n        /* \"contracts/Tether USD.sol\":14958:15054  _allowances[_msgSender()][spender].sub(subtractedValue, \"ORC20: decreased allowance below zero\") */\n      tag_107\n        /* \"contracts/Tether USD.sol\":14997:15012  subtractedValue */\n      dup6\n        /* \"contracts/Tether USD.sol\":14958:15054  _allowances[_msgSender()][spender].sub(subtractedValue, \"ORC20: decreased allowance below zero\") */\n      mload(0x40)\n      dup1\n      0x60\n      add\n      0x40\n      mstore\n      dup1\n      0x25\n      dup2\n      mstore\n      0x20\n      add\n      data_87d6db954c608985f03f8b1fef85ed6dcb004f13fa99eb0d65cfd43383c12a83\n      0x25\n      swap2\n      codecopy\n        /* \"contracts/Tether USD.sol\":14958:14969  _allowances */\n      0x02\n        /* \"contracts/Tether USD.sol\":14958:14983  _allowances[_msgSender()] */\n      0x00\n        /* \"contracts/Tether USD.sol\":14970:14982  _msgSender() */\n      tag_144\n        /* \"contracts/Tether USD.sol\":14970:14980  _msgSender */\n      tag_99\n        /* \"contracts/Tether USD.sol\":14970:14982  _msgSender() */\n      jump\t// in\n    tag_144:\n      sub(exp(0x02, 0xa0), 0x01)\n        /* \"contracts/Tether USD.sol\":14958:14983  _allowances[_msgSender()] */\n      swap1\n      dup2\n      and\n      dup3\n      mstore\n      0x20\n      dup1\n      dup4\n      add\n      swap4\n      swap1\n      swap4\n      mstore\n      0x40\n      swap2\n      dup3\n      add\n      0x00\n      swap1\n      dup2\n      keccak256\n        /* \"contracts/Tether USD.sol\":14958:14992  _allowances[_msgSender()][spender] */\n      swap2\n      dup14\n      and\n      dup2\n      mstore\n      swap3\n      mstore\n      swap1\n      keccak256\n      sload\n      swap2\n        /* \"contracts/Tether USD.sol\":14958:15054  _allowances[_msgSender()][spender].sub(subtractedValue, \"ORC20: decreased allowance below zero\") */\n      swap1\n      0xffffffff\n        /* \"contracts/Tether USD.sol\":14958:14996  _allowances[_msgSender()][spender].sub */\n      tag_109\n        /* \"contracts/Tether USD.sol\":14958:15054  _allowances[_msgSender()][spender].sub(subtractedValue, \"ORC20: decreased allowance below zero\") */\n      and\n      jump\t// in\n        /* \"contracts/Tether USD.sol\":12503:12650  function transfer(address recipient, uint256 amount) external returns (bool) {... */\n    tag_73:\n        /* \"contracts/Tether USD.sol\":12574:12578  bool */\n      0x00\n        /* \"contracts/Tether USD.sol\":12586:12628  _transfer(_msgSender(), recipient, amount) */\n      tag_97\n        /* \"contracts/Tether USD.sol\":12596:12608  _msgSender() */\n      tag_147\n        /* \"contracts/Tether USD.sol\":12596:12606  _msgSender */\n      tag_99\n        /* \"contracts/Tether USD.sol\":12596:12608  _msgSender() */\n      jump\t// in\n    tag_147:\n        /* \"contracts/Tether USD.sol\":12610:12619  recipient */\n      dup5\n        /* \"contracts/Tether USD.sol\":12621:12627  amount */\n      dup5\n        /* \"contracts/Tether USD.sol\":12586:12595  _transfer */\n      tag_104\n        /* \"contracts/Tether USD.sol\":12586:12628  _transfer(_msgSender(), recipient, amount) */\n      jump\t// in\n        /* \"contracts/Tether USD.sol\":11233:11254  string public _symbol */\n    tag_75:\n      0x05\n      dup1\n      sload\n      0x40\n      dup1\n      mload\n      0x20\n      0x02\n      0x01\n      dup6\n      and\n      iszero\n      0x0100\n      mul\n      not(0x00)\n      add\n      swap1\n      swap5\n      and\n      swap4\n      swap1\n      swap4\n      div\n      0x1f\n      dup2\n      add\n      dup5\n      swap1\n      div\n      dup5\n      mul\n      dup3\n      add\n      dup5\n      add\n      swap1\n      swap3\n      mstore\n      dup2\n      dup2\n      mstore\n      swap3\n      swap2\n      dup4\n      add\n      dup3\n      dup3\n      dup1\n      iszero\n      tag_148\n      jumpi\n      dup1\n      0x1f\n      lt\n      tag_149\n      jumpi\n      0x0100\n      dup1\n      dup4\n      sload\n      div\n      mul\n      dup4\n      mstore\n      swap2\n      0x20\n      add\n      swap2\n      jump(tag_148)\n    tag_149:\n      dup3\n      add\n      swap2\n      swap1\n      0x00\n      mstore\n      keccak256(0x00, 0x20)\n      swap1\n    tag_150:\n      dup2\n      sload\n      dup2\n      mstore\n      swap1\n      0x01\n      add\n      swap1\n      0x20\n      add\n      dup1\n      dup4\n      gt\n      tag_150\n      jumpi\n      dup3\n      swap1\n      sub\n      0x1f\n      and\n      dup3\n      add\n      swap2\n    tag_148:\n      pop\n      pop\n      pop\n      pop\n      pop\n      dup2\n      jump\t// out\n        /* \"contracts/Tether USD.sol\":11258:11277  string public _name */\n    tag_81:\n      0x06\n      dup1\n      sload\n      0x40\n      dup1\n      mload\n      0x20\n      0x02\n      0x01\n      dup6\n      and\n      iszero\n      0x0100\n      mul\n      not(0x00)\n      add\n      swap1\n      swap5\n      and\n      swap4\n      swap1\n      swap4\n      div\n      0x1f\n      dup2\n      add\n      dup5\n      swap1\n      div\n      dup5\n      mul\n      dup3\n      add\n      dup5\n      add\n      swap1\n      swap3\n      mstore\n      dup2\n      dup2\n      mstore\n      swap3\n      swap2\n      dup4\n      add\n      dup3\n      dup3\n      dup1\n      iszero\n      tag_148\n      jumpi\n      dup1\n      0x1f\n      lt\n      tag_149\n      jumpi\n      0x0100\n      dup1\n      dup4\n      sload\n      div\n      mul\n      dup4\n      mstore\n      swap2\n      0x20\n      add\n      swap2\n      jump(tag_148)\n        /* \"contracts/Tether USD.sol\":12699:12827  function allowance(address owner, address spender) external view returns (uint256) {... */\n    tag_88:\n      sub(exp(0x02, 0xa0), 0x01)\n        /* \"contracts/Tether USD.sol\":12795:12813  _allowances[owner] */\n      swap2\n      dup3\n      and\n        /* \"contracts/Tether USD.sol\":12773:12780  uint256 */\n      0x00\n        /* \"contracts/Tether USD.sol\":12795:12813  _allowances[owner] */\n      swap1\n      dup2\n      mstore\n        /* \"contracts/Tether USD.sol\":12795:12806  _allowances */\n      0x02\n        /* \"contracts/Tether USD.sol\":12795:12813  _allowances[owner] */\n      0x20\n      swap1\n      dup2\n      mstore\n      0x40\n      dup1\n      dup4\n      keccak256\n        /* \"contracts/Tether USD.sol\":12795:12822  _allowances[owner][spender] */\n      swap4\n      swap1\n      swap5\n      and\n      dup3\n      mstore\n      swap2\n      swap1\n      swap2\n      mstore\n      keccak256\n      sload\n      swap1\n        /* \"contracts/Tether USD.sol\":12699:12827  function allowance(address owner, address spender) external view returns (uint256) {... */\n      jump\t// out\n        /* \"contracts/Tether USD.sol\":10559:10660  function transferOwnership(address newOwner) public onlyOwner {... */\n    tag_91:\n        /* \"contracts/Tether USD.sol\":9906:9918  _msgSender() */\n      tag_156\n        /* \"contracts/Tether USD.sol\":9906:9916  _msgSender */\n      tag_99\n        /* \"contracts/Tether USD.sol\":9906:9918  _msgSender() */\n      jump\t// in\n    tag_156:\n        /* \"contracts/Tether USD.sol\":9896:9902  _owner */\n      sload(0x00)\n      sub(exp(0x02, 0xa0), 0x01)\n      swap1\n      dup2\n      and\n        /* \"contracts/Tether USD.sol\":9896:9918  _owner == _msgSender() */\n      swap2\n      and\n      eq\n        /* \"contracts/Tether USD.sol\":9888:9955  require(_owner == _msgSender(), \"Ownable: caller is not the owner\") */\n      tag_157\n      jumpi\n      0x40\n      dup1\n      mload\n      mul(0x461bcd, exp(0x02, 0xe5))\n      dup2\n      mstore\n      0x20\n      0x04\n      dup3\n      add\n      dup2\n      swap1\n      mstore\n      0x24\n      dup3\n      add\n      mstore\n      0x4f776e61626c653a2063616c6c6572206973206e6f7420746865206f776e6572\n      0x44\n      dup3\n      add\n      mstore\n      swap1\n      mload\n      swap1\n      dup2\n      swap1\n      sub\n      0x64\n      add\n      swap1\n      revert\n    tag_157:\n        /* \"contracts/Tether USD.sol\":10627:10655  _transferOwnership(newOwner) */\n      tag_159\n        /* \"contracts/Tether USD.sol\":10646:10654  newOwner */\n      dup2\n        /* \"contracts/Tether USD.sol\":10627:10645  _transferOwnership */\n      tag_160\n        /* \"contracts/Tether USD.sol\":10627:10655  _transferOwnership(newOwner) */\n      jump\t// in\n    tag_159:\n        /* \"contracts/Tether USD.sol\":10559:10660  function transferOwnership(address newOwner) public onlyOwner {... */\n      pop\n      jump\t// out\n        /* \"contracts/Tether USD.sol\":3595:3685  function _msgSender() internal view returns (address payable) {... */\n    tag_99:\n        /* \"contracts/Tether USD.sol\":3670:3680  msg.sender */\n      caller\n        /* \"contracts/Tether USD.sol\":3595:3685  function _msgSender() internal view returns (address payable) {... */\n      swap1\n      jump\t// out\n        /* \"contracts/Tether USD.sol\":18007:18321  function _approve(address owner, address spender, uint256 amount) internal {... */\n    tag_100:\n      sub(exp(0x02, 0xa0), 0x01)\n        /* \"contracts/Tether USD.sol\":18096:18115  owner != address(0) */\n      dup4\n      and\n        /* \"contracts/Tether USD.sol\":18088:18156  require(owner != address(0), \"ORC20: approve from the zero address\") */\n      tag_163\n      jumpi\n      mload(0x40)\n      mul(0x461bcd, exp(0x02, 0xe5))\n      dup2\n      mstore\n      0x04\n      add\n      dup1\n      dup1\n      0x20\n      add\n      dup3\n      dup2\n      sub\n      dup3\n      mstore\n      0x24\n      dup2\n      mstore\n      0x20\n      add\n      dup1\n      data_a3b32387119999786b1ec9d1f53a7e79560c2e33f750b8a96c8e2d14ecb77f91\n      0x24\n      swap2\n      codecopy\n      0x40\n      add\n      swap2\n      pop\n      pop\n      mload(0x40)\n      dup1\n      swap2\n      sub\n      swap1\n      revert\n    tag_163:\n      sub(exp(0x02, 0xa0), 0x01)\n        /* \"contracts/Tether USD.sol\":18170:18191  spender != address(0) */\n      dup3\n      and\n        /* \"contracts/Tether USD.sol\":18162:18230  require(spender != address(0), \"ORC20: approve to the zero address\") */\n      tag_164\n      jumpi\n      mload(0x40)\n      mul(0x461bcd, exp(0x02, 0xe5))\n      dup2\n      mstore\n      0x04\n      add\n      dup1\n      dup1\n      0x20\n      add\n      dup3\n      dup2\n      sub\n      dup3\n      mstore\n      0x22\n      dup2\n      mstore\n      0x20\n      add\n      dup1\n      data_b394f3b0695aa74f0153a7d294ced7383d6f167777ff906a2b400f4783ae435c\n      0x22\n      swap2\n      codecopy\n      0x40\n      add\n      swap2\n      pop\n      pop\n      mload(0x40)\n      dup1\n      swap2\n      sub\n      swap1\n      revert\n    tag_164:\n      sub(exp(0x02, 0xa0), 0x01)\n        /* \"contracts/Tether USD.sol\":18237:18255  _allowances[owner] */\n      dup1\n      dup5\n      and\n      0x00\n      dup2\n      dup2\n      mstore\n        /* \"contracts/Tether USD.sol\":18237:18248  _allowances */\n      0x02\n        /* \"contracts/Tether USD.sol\":18237:18255  _allowances[owner] */\n      0x20\n      swap1\n      dup2\n      mstore\n      0x40\n      dup1\n      dup4\n      keccak256\n        /* \"contracts/Tether USD.sol\":18237:18264  _allowances[owner][spender] */\n      swap5\n      dup8\n      and\n      dup1\n      dup5\n      mstore\n      swap5\n      dup3\n      mstore\n      swap2\n      dup3\n      swap1\n      keccak256\n        /* \"contracts/Tether USD.sol\":18237:18273  _allowances[owner][spender] = amount */\n      dup6\n      swap1\n      sstore\n        /* \"contracts/Tether USD.sol\":18284:18316  Approval(owner, spender, amount) */\n      dup2\n      mload\n      dup6\n      dup2\n      mstore\n      swap2\n      mload\n      0x8c5be1e5ebec7d5bd14f71427d1e84f3dd0314c0f7b2291e5b200ac8c7c3b925\n      swap3\n      dup2\n      swap1\n      sub\n      swap1\n      swap2\n      add\n      swap1\n      log3\n        /* \"contracts/Tether USD.sol\":18007:18321  function _approve(address owner, address spender, uint256 amount) internal {... */\n      pop\n      pop\n      pop\n      jump\t// out\n        /* \"contracts/Tether USD.sol\":16015:16457  function _transfer(address sender, address recipient, uint256 amount) internal {... */\n    tag_104:\n      sub(exp(0x02, 0xa0), 0x01)\n        /* \"contracts/Tether USD.sol\":16108:16128  sender != address(0) */\n      dup4\n      and\n        /* \"contracts/Tether USD.sol\":16100:16170  require(sender != address(0), \"ORC20: transfer from the zero address\") */\n      tag_166\n      jumpi\n      mload(0x40)\n      mul(0x461bcd, exp(0x02, 0xe5))\n      dup2\n      mstore\n      0x04\n      add\n      dup1\n      dup1\n      0x20\n      add\n      dup3\n      dup2\n      sub\n      dup3\n      mstore\n      0x25\n      dup2\n      mstore\n      0x20\n      add\n      dup1\n      data_bcfde3765840cb5eef6a25d234002120ae0868902ac4a3023b23315ef6e74553\n      0x25\n      swap2\n      codecopy\n      0x40\n      add\n      swap2\n      pop\n      pop\n      mload(0x40)\n      dup1\n      swap2\n      sub\n      swap1\n      revert\n    tag_166:\n      sub(exp(0x02, 0xa0), 0x01)\n        /* \"contracts/Tether USD.sol\":16184:16207  recipient != address(0) */\n      dup3\n      and\n        /* \"contracts/Tether USD.sol\":16176:16247  require(recipient != address(0), \"ORC20: transfer to the zero address\") */\n      tag_167\n      jumpi\n      mload(0x40)\n      mul(0x461bcd, exp(0x02, 0xe5))\n      dup2\n      mstore\n      0x04\n      add\n      dup1\n      dup1\n      0x20\n      add\n      dup3\n      dup2\n      sub\n      dup3\n      mstore\n      0x23\n      dup2\n      mstore\n      0x20\n      add\n      dup1\n      data_64ea97ae7457d513c64ccdc791d74b8e0dbe043ffc2a1bdba9184138ac3b5ad4\n      0x23\n      swap2\n      codecopy\n      0x40\n      add\n      swap2\n      pop\n      pop\n      mload(0x40)\n      dup1\n      swap2\n      sub\n      swap1\n      revert\n    tag_167:\n        /* \"contracts/Tether USD.sol\":16274:16345  _balances[sender].sub(amount, \"ORC20: transfer amount exceeds balance\") */\n      tag_168\n        /* \"contracts/Tether USD.sol\":16296:16302  amount */\n      dup2\n        /* \"contracts/Tether USD.sol\":16274:16345  _balances[sender].sub(amount, \"ORC20: transfer amount exceeds balance\") */\n      mload(0x40)\n      dup1\n      0x60\n      add\n      0x40\n      mstore\n      dup1\n      0x26\n      dup2\n      mstore\n      0x20\n      add\n      data_8b3b2f7361ca6ccaa55146d6345d4981f11bfa0015185087bfcf610e5bc8489a\n      0x26\n      swap2\n      codecopy\n      sub(exp(0x02, 0xa0), 0x01)\n        /* \"contracts/Tether USD.sol\":16274:16291  _balances[sender] */\n      dup7\n      and\n      0x00\n      swap1\n      dup2\n      mstore\n        /* \"contracts/Tether USD.sol\":16274:16283  _balances */\n      0x01\n        /* \"contracts/Tether USD.sol\":16274:16291  _balances[sender] */\n      0x20\n      mstore\n      0x40\n      swap1\n      keccak256\n      sload\n      swap2\n        /* \"contracts/Tether USD.sol\":16274:16345  _balances[sender].sub(amount, \"ORC20: transfer amount exceeds balance\") */\n      swap1\n      0xffffffff\n        /* \"contracts/Tether USD.sol\":16274:16295  _balances[sender].sub */\n      tag_109\n        /* \"contracts/Tether USD.sol\":16274:16345  _balances[sender].sub(amount, \"ORC20: transfer amount exceeds balance\") */\n      and\n      jump\t// in\n    tag_168:\n      sub(exp(0x02, 0xa0), 0x01)\n        /* \"contracts/Tether USD.sol\":16254:16271  _balances[sender] */\n      dup1\n      dup6\n      and\n      0x00\n      swap1\n      dup2\n      mstore\n        /* \"contracts/Tether USD.sol\":16254:16263  _balances */\n      0x01\n        /* \"contracts/Tether USD.sol\":16254:16271  _balances[sender] */\n      0x20\n      mstore\n      0x40\n      dup1\n      dup3\n      keccak256\n        /* \"contracts/Tether USD.sol\":16254:16345  _balances[sender] = _balances[sender].sub(amount, \"ORC20: transfer amount exceeds balance\") */\n      swap4\n      swap1\n      swap4\n      sstore\n        /* \"contracts/Tether USD.sol\":16374:16394  _balances[recipient] */\n      swap1\n      dup5\n      and\n      dup2\n      mstore\n      keccak256\n      sload\n        /* \"contracts/Tether USD.sol\":16374:16406  _balances[recipient].add(amount) */\n      tag_169\n      swap1\n        /* \"contracts/Tether USD.sol\":16399:16405  amount */\n      dup3\n        /* \"contracts/Tether USD.sol\":16374:16406  _balances[recipient].add(amount) */\n      0xffffffff\n        /* \"contracts/Tether USD.sol\":16374:16398  _balances[recipient].add */\n      tag_116\n        /* \"contracts/Tether USD.sol\":16374:16406  _balances[recipient].add(amount) */\n      and\n      jump\t// in\n    tag_169:\n      sub(exp(0x02, 0xa0), 0x01)\n        /* \"contracts/Tether USD.sol\":16351:16371  _balances[recipient] */\n      dup1\n      dup5\n      and\n      0x00\n      dup2\n      dup2\n      mstore\n        /* \"contracts/Tether USD.sol\":16351:16360  _balances */\n      0x01\n        /* \"contracts/Tether USD.sol\":16351:16371  _balances[recipient] */\n      0x20\n      swap1\n      dup2\n      mstore\n      0x40\n      swap2\n      dup3\n      swap1\n      keccak256\n        /* \"contracts/Tether USD.sol\":16351:16406  _balances[recipient] = _balances[recipient].add(amount) */\n      swap5\n      swap1\n      swap5\n      sstore\n        /* \"contracts/Tether USD.sol\":16417:16452  Transfer(sender, recipient, amount) */\n      dup1\n      mload\n      dup6\n      dup2\n      mstore\n      swap1\n      mload\n        /* \"contracts/Tether USD.sol\":16351:16371  _balances[recipient] */\n      swap2\n      swap4\n        /* \"contracts/Tether USD.sol\":16417:16452  Transfer(sender, recipient, amount) */\n      swap3\n      dup8\n      and\n      swap3\n      0xddf252ad1be2c89b69c2b068fc378daa952ba7f163c4a11628f55a4df523b3ef\n      swap3\n      swap2\n      dup3\n      swap1\n      sub\n      add\n      swap1\n      log3\n        /* \"contracts/Tether USD.sol\":16015:16457  function _transfer(address sender, address recipient, uint256 amount) internal {... */\n      pop\n      pop\n      pop\n      jump\t// out\n        /* \"contracts/Tether USD.sol\":5492:5665  function sub(uint256 a, uint256 b, string memory errorMessage) internal pure returns (uint256) {... */\n    tag_109:\n        /* \"contracts/Tether USD.sol\":5578:5585  uint256 */\n      0x00\n        /* \"contracts/Tether USD.sol\":5609:5621  errorMessage */\n      dup2\n        /* \"contracts/Tether USD.sol\":5601:5607  b <= a */\n      dup5\n      dup5\n      gt\n      iszero\n        /* \"contracts/Tether USD.sol\":5593:5622  require(b <= a, errorMessage) */\n      tag_171\n      jumpi\n      mload(0x40)\n      mul(0x461bcd, exp(0x02, 0xe5))\n      dup2\n      mstore\n      0x04\n      add\n      dup1\n      dup1\n      0x20\n      add\n      dup3\n      dup2\n      sub\n      dup3\n      mstore\n      dup4\n      dup2\n      dup2\n      mload\n      dup2\n      mstore\n      0x20\n      add\n      swap2\n      pop\n      dup1\n      mload\n      swap1\n      0x20\n      add\n      swap1\n      dup1\n      dup4\n      dup4\n        /* \"--CODEGEN--\":23:24   */\n      0x00\n        /* \"--CODEGEN--\":8:108   */\n    tag_172:\n        /* \"--CODEGEN--\":33:36   */\n      dup4\n        /* \"--CODEGEN--\":30:31   */\n      dup2\n        /* \"--CODEGEN--\":27:37   */\n      lt\n        /* \"--CODEGEN--\":8:108   */\n      iszero\n      tag_174\n      jumpi\n        /* \"--CODEGEN--\":90:101   */\n      dup2\n      dup2\n      add\n        /* \"--CODEGEN--\":84:102   */\n      mload\n        /* \"--CODEGEN--\":71:82   */\n      dup4\n      dup3\n      add\n        /* \"--CODEGEN--\":64:103   */\n      mstore\n        /* \"--CODEGEN--\":52:54   */\n      0x20\n        /* \"--CODEGEN--\":45:55   */\n      add\n        /* \"--CODEGEN--\":8:108   */\n      jump(tag_172)\n    tag_174:\n        /* \"--CODEGEN--\":12:26   */\n      pop\n        /* \"contracts/Tether USD.sol\":5593:5622  require(b <= a, errorMessage) */\n      pop\n      pop\n      pop\n      swap1\n      pop\n      swap1\n      dup2\n      add\n      swap1\n      0x1f\n      and\n      dup1\n      iszero\n      tag_175\n      jumpi\n      dup1\n      dup3\n      sub\n      dup1\n      mload\n      0x01\n      dup4\n      0x20\n      sub\n      0x0100\n      exp\n      sub\n      not\n      and\n      dup2\n      mstore\n      0x20\n      add\n      swap2\n      pop\n    tag_175:\n      pop\n      swap3\n      pop\n      pop\n      pop\n      mload(0x40)\n      dup1\n      swap2\n      sub\n      swap1\n      revert\n    tag_171:\n      pop\n      pop\n      pop\n        /* \"contracts/Tether USD.sol\":5640:5645  a - b */\n      swap1\n      sub\n      swap1\n        /* \"contracts/Tether USD.sol\":5492:5665  function sub(uint256 a, uint256 b, string memory errorMessage) internal pure returns (uint256) {... */\n      jump\t// out\n        /* \"contracts/Tether USD.sol\":4694:4856  function add(uint256 a, uint256 b) internal pure returns (uint256) {... */\n    tag_116:\n        /* \"contracts/Tether USD.sol\":4752:4759  uint256 */\n      0x00\n        /* \"contracts/Tether USD.sol\":4779:4784  a + b */\n      dup3\n      dup3\n      add\n        /* \"contracts/Tether USD.sol\":4798:4804  c >= a */\n      dup4\n      dup2\n      lt\n      iszero\n        /* \"contracts/Tether USD.sol\":4790:4836  require(c >= a, \"SafeMath: addition overflow\") */\n      tag_177\n      jumpi\n      0x40\n      dup1\n      mload\n      mul(0x461bcd, exp(0x02, 0xe5))\n      dup2\n      mstore\n      0x20\n      0x04\n      dup3\n      add\n      mstore\n      0x1b\n      0x24\n      dup3\n      add\n      mstore\n      0x536166654d6174683a206164646974696f6e206f766572666c6f770000000000\n      0x44\n      dup3\n      add\n      mstore\n      swap1\n      mload\n      swap1\n      dup2\n      swap1\n      sub\n      0x64\n      add\n      swap1\n      revert\n    tag_177:\n        /* \"contracts/Tether USD.sol\":4850:4851  c */\n      swap4\n        /* \"contracts/Tether USD.sol\":4694:4856  function add(uint256 a, uint256 b) internal pure returns (uint256) {... */\n      swap3\n      pop\n      pop\n      pop\n      jump\t// out\n        /* \"contracts/Tether USD.sol\":17286:17610  function _burn(address account, uint256 amount) internal {... */\n    tag_120:\n      sub(exp(0x02, 0xa0), 0x01)\n        /* \"contracts/Tether USD.sol\":17357:17378  account != address(0) */\n      dup3\n      and\n        /* \"contracts/Tether USD.sol\":17349:17416  require(account != address(0), \"ORC20: burn from the zero address\") */\n      tag_179\n      jumpi\n      mload(0x40)\n      mul(0x461bcd, exp(0x02, 0xe5))\n      dup2\n      mstore\n      0x04\n      add\n      dup1\n      dup1\n      0x20\n      add\n      dup3\n      dup2\n      sub\n      dup3\n      mstore\n      0x21\n      dup2\n      mstore\n      0x20\n      add\n      dup1\n      data_f70d9d9c27d4d18165be1f03a1f1a5d7bb474afa8cbe6af412b168937e2f3a84\n      0x21\n      swap2\n      codecopy\n      0x40\n      add\n      swap2\n      pop\n      pop\n      mload(0x40)\n      dup1\n      swap2\n      sub\n      swap1\n      revert\n    tag_179:\n        /* \"contracts/Tether USD.sol\":17444:17512  _balances[account].sub(amount, \"ORC20: burn amount exceeds balance\") */\n      tag_180\n        /* \"contracts/Tether USD.sol\":17467:17473  amount */\n      dup2\n        /* \"contracts/Tether USD.sol\":17444:17512  _balances[account].sub(amount, \"ORC20: burn amount exceeds balance\") */\n      mload(0x40)\n      dup1\n      0x60\n      add\n      0x40\n      mstore\n      dup1\n      0x22\n      dup2\n      mstore\n      0x20\n      add\n      data_da8c24ca01df06fe437c579662b59c535302eaae2b6940a10883325abbcd45ca\n      0x22\n      swap2\n      codecopy\n      sub(exp(0x02, 0xa0), 0x01)\n        /* \"contracts/Tether USD.sol\":17444:17462  _balances[account] */\n      dup6\n      and\n      0x00\n      swap1\n      dup2\n      mstore\n        /* \"contracts/Tether USD.sol\":17444:17453  _balances */\n      0x01\n        /* \"contracts/Tether USD.sol\":17444:17462  _balances[account] */\n      0x20\n      mstore\n      0x40\n      swap1\n      keccak256\n      sload\n      swap2\n        /* \"contracts/Tether USD.sol\":17444:17512  _balances[account].sub(amount, \"ORC20: burn amount exceeds balance\") */\n      swap1\n      0xffffffff\n        /* \"contracts/Tether USD.sol\":17444:17466  _balances[account].sub */\n      tag_109\n        /* \"contracts/Tether USD.sol\":17444:17512  _balances[account].sub(amount, \"ORC20: burn amount exceeds balance\") */\n      and\n      jump\t// in\n    tag_180:\n      sub(exp(0x02, 0xa0), 0x01)\n        /* \"contracts/Tether USD.sol\":17423:17441  _balances[account] */\n      dup4\n      and\n      0x00\n      swap1\n      dup2\n      mstore\n        /* \"contracts/Tether USD.sol\":17423:17432  _balances */\n      0x01\n        /* \"contracts/Tether USD.sol\":17423:17441  _balances[account] */\n      0x20\n      mstore\n      0x40\n      swap1\n      keccak256\n        /* \"contracts/Tether USD.sol\":17423:17512  _balances[account] = _balances[account].sub(amount, \"ORC20: burn amount exceeds balance\") */\n      sstore\n        /* \"contracts/Tether USD.sol\":17533:17545  _totalSupply */\n      sload(0x03)\n        /* \"contracts/Tether USD.sol\":17533:17557  _totalSupply.sub(amount) */\n      tag_181\n      swap1\n        /* \"contracts/Tether USD.sol\":17550:17556  amount */\n      dup3\n        /* \"contracts/Tether USD.sol\":17533:17557  _totalSupply.sub(amount) */\n      0xffffffff\n        /* \"contracts/Tether USD.sol\":17533:17549  _totalSupply.sub */\n      tag_182\n        /* \"contracts/Tether USD.sol\":17533:17557  _totalSupply.sub(amount) */\n      and\n      jump\t// in\n    tag_181:\n        /* \"contracts/Tether USD.sol\":17518:17530  _totalSupply */\n      0x03\n        /* \"contracts/Tether USD.sol\":17518:17557  _totalSupply = _totalSupply.sub(amount) */\n      sstore\n        /* \"contracts/Tether USD.sol\":17568:17605  Transfer(account, address(0), amount) */\n      0x40\n      dup1\n      mload\n      dup3\n      dup2\n      mstore\n      swap1\n      mload\n        /* \"contracts/Tether USD.sol\":17594:17595  0 */\n      0x00\n      swap2\n      sub(exp(0x02, 0xa0), 0x01)\n        /* \"contracts/Tether USD.sol\":17568:17605  Transfer(account, address(0), amount) */\n      dup6\n      and\n      swap2\n      0xddf252ad1be2c89b69c2b068fc378daa952ba7f163c4a11628f55a4df523b3ef\n      swap2\n      dup2\n      swap1\n      sub\n      0x20\n      add\n      swap1\n      log3\n        /* \"contracts/Tether USD.sol\":17286:17610  function _burn(address account, uint256 amount) internal {... */\n      pop\n      pop\n      jump\t// out\n        /* \"contracts/Tether USD.sol\":16707:16991  function _mint(address account, uint256 amount) internal {... */\n    tag_139:\n      sub(exp(0x02, 0xa0), 0x01)\n        /* \"contracts/Tether USD.sol\":16778:16799  account != address(0) */\n      dup3\n      and\n        /* \"contracts/Tether USD.sol\":16770:16835  require(account != address(0), \"ORC20: mint to the zero address\") */\n      tag_184\n      jumpi\n      0x40\n      dup1\n      mload\n      mul(0x461bcd, exp(0x02, 0xe5))\n      dup2\n      mstore\n      0x20\n      0x04\n      dup3\n      add\n      mstore\n      0x1f\n      0x24\n      dup3\n      add\n      mstore\n      0x4f524332303a206d696e7420746f20746865207a65726f206164647265737300\n      0x44\n      dup3\n      add\n      mstore\n      swap1\n      mload\n      swap1\n      dup2\n      swap1\n      sub\n      0x64\n      add\n      swap1\n      revert\n    tag_184:\n        /* \"contracts/Tether USD.sol\":16857:16869  _totalSupply */\n      sload(0x03)\n        /* \"contracts/Tether USD.sol\":16857:16881  _totalSupply.add(amount) */\n      tag_185\n      swap1\n        /* \"contracts/Tether USD.sol\":16874:16880  amount */\n      dup3\n        /* \"contracts/Tether USD.sol\":16857:16881  _totalSupply.add(amount) */\n      0xffffffff\n        /* \"contracts/Tether USD.sol\":16857:16873  _totalSupply.add */\n      tag_116\n        /* \"contracts/Tether USD.sol\":16857:16881  _totalSupply.add(amount) */\n      and\n      jump\t// in\n    tag_185:\n        /* \"contracts/Tether USD.sol\":16842:16854  _totalSupply */\n      0x03\n        /* \"contracts/Tether USD.sol\":16842:16881  _totalSupply = _totalSupply.add(amount) */\n      sstore\n      sub(exp(0x02, 0xa0), 0x01)\n        /* \"contracts/Tether USD.sol\":16908:16926  _balances[account] */\n      dup3\n      and\n      0x00\n      swap1\n      dup2\n      mstore\n        /* \"contracts/Tether USD.sol\":16908:16917  _balances */\n      0x01\n        /* \"contracts/Tether USD.sol\":16908:16926  _balances[account] */\n      0x20\n      mstore\n      0x40\n      swap1\n      keccak256\n      sload\n        /* \"contracts/Tether USD.sol\":16908:16938  _balances[account].add(amount) */\n      tag_186\n      swap1\n        /* \"contracts/Tether USD.sol\":16931:16937  amount */\n      dup3\n        /* \"contracts/Tether USD.sol\":16908:16938  _balances[account].add(amount) */\n      0xffffffff\n        /* \"contracts/Tether USD.sol\":16908:16930  _balances[account].add */\n      tag_116\n        /* \"contracts/Tether USD.sol\":16908:16938  _balances[account].add(amount) */\n      and\n      jump\t// in\n    tag_186:\n      sub(exp(0x02, 0xa0), 0x01)\n        /* \"contracts/Tether USD.sol\":16887:16905  _balances[account] */\n      dup4\n      and\n      0x00\n      dup2\n      dup2\n      mstore\n        /* \"contracts/Tether USD.sol\":16887:16896  _balances */\n      0x01\n        /* \"contracts/Tether USD.sol\":16887:16905  _balances[account] */\n      0x20\n      swap1\n      dup2\n      mstore\n      0x40\n      dup1\n      dup4\n      keccak256\n        /* \"contracts/Tether USD.sol\":16887:16938  _balances[account] = _balances[account].add(amount) */\n      swap5\n      swap1\n      swap5\n      sstore\n        /* \"contracts/Tether USD.sol\":16949:16986  Transfer(address(0), account, amount) */\n      dup4\n      mload\n      dup6\n      dup2\n      mstore\n      swap4\n      mload\n        /* \"contracts/Tether USD.sol\":16887:16905  _balances[account] */\n      swap3\n      swap4\n      swap2\n      swap3\n        /* \"contracts/Tether USD.sol\":16949:16986  Transfer(address(0), account, amount) */\n      0xddf252ad1be2c89b69c2b068fc378daa952ba7f163c4a11628f55a4df523b3ef\n      swap3\n      dup2\n      swap1\n      sub\n      swap1\n      swap2\n      add\n      swap1\n      log3\n        /* \"contracts/Tether USD.sol\":16707:16991  function _mint(address account, uint256 amount) internal {... */\n      pop\n      pop\n      jump\t// out\n        /* \"contracts/Tether USD.sol\":10753:10964  function _transferOwnership(address newOwner) internal {... */\n    tag_160:\n      sub(exp(0x02, 0xa0), 0x01)\n        /* \"contracts/Tether USD.sol\":10822:10844  newOwner != address(0) */\n      dup2\n      and\n        /* \"contracts/Tether USD.sol\":10814:10887  require(newOwner != address(0), \"Ownable: new owner is the zero address\") */\n      tag_188\n      jumpi\n      mload(0x40)\n      mul(0x461bcd, exp(0x02, 0xe5))\n      dup2\n      mstore\n      0x04\n      add\n      dup1\n      dup1\n      0x20\n      add\n      dup3\n      dup2\n      sub\n      dup3\n      mstore\n      0x26\n      dup2\n      mstore\n      0x20\n      add\n      dup1\n      data_245f15ff17f551913a7a18385165551503906a406f905ac1c2437281a7cd0cfe\n      0x26\n      swap2\n      codecopy\n      0x40\n      add\n      swap2\n      pop\n      pop\n      mload(0x40)\n      dup1\n      swap2\n      sub\n      swap1\n      revert\n    tag_188:\n        /* \"contracts/Tether USD.sol\":10919:10925  _owner */\n      0x00\n      dup1\n      sload\n        /* \"contracts/Tether USD.sol\":10898:10936  OwnershipTransferred(_owner, newOwner) */\n      mload(0x40)\n      sub(exp(0x02, 0xa0), 0x01)\n      dup1\n      dup6\n      and\n      swap4\n        /* \"contracts/Tether USD.sol\":10919:10925  _owner */\n      swap3\n      and\n      swap2\n        /* \"contracts/Tether USD.sol\":10898:10936  OwnershipTransferred(_owner, newOwner) */\n      0x8be0079c531659141344cd1fd0a4f28419497f9722a3daafe3b4186f6b6457e0\n      swap2\n      log3\n        /* \"contracts/Tether USD.sol\":10942:10948  _owner */\n      0x00\n        /* \"contracts/Tether USD.sol\":10942:10959  _owner = newOwner */\n      dup1\n      sload\n      not(0xffffffffffffffffffffffffffffffffffffffff)\n      and\n      sub(exp(0x02, 0xa0), 0x01)\n      swap3\n      swap1\n      swap3\n      and\n      swap2\n      swap1\n      swap2\n      or\n      swap1\n      sstore\n        /* \"contracts/Tether USD.sol\":10753:10964  function _transferOwnership(address newOwner) internal {... */\n      jump\t// out\n        /* \"contracts/Tether USD.sol\":5100:5228  function sub(uint256 a, uint256 b) internal pure returns (uint256) {... */\n    tag_182:\n        /* \"contracts/Tether USD.sol\":5158:5165  uint256 */\n      0x00\n        /* \"contracts/Tether USD.sol\":5180:5223  sub(a, b, \"SafeMath: subtraction overflow\") */\n      tag_177\n        /* \"contracts/Tether USD.sol\":5184:5185  a */\n      dup4\n        /* \"contracts/Tether USD.sol\":5187:5188  b */\n      dup4\n        /* \"contracts/Tether USD.sol\":5180:5223  sub(a, b, \"SafeMath: subtraction overflow\") */\n      mload(0x40)\n      dup1\n      0x40\n      add\n      0x40\n      mstore\n      dup1\n      0x1e\n      dup2\n      mstore\n      0x20\n      add\n      0x536166654d6174683a207375627472616374696f6e206f766572666c6f770000\n      dup2\n      mstore\n      pop\n        /* \"contracts/Tether USD.sol\":5180:5183  sub */\n      tag_109\n        /* \"contracts/Tether USD.sol\":5180:5223  sub(a, b, \"SafeMath: subtraction overflow\") */\n      jump\t// in\n    stop\n    data_245f15ff17f551913a7a18385165551503906a406f905ac1c2437281a7cd0cfe 4f776e61626c653a206e6577206f776e657220697320746865207a65726f2061646472657373\n    data_3d234848b1165c1d44ee096354d96b78ee9aa8ef9f4dd8fb59ed7216dbda102f 4f524332303a207472616e7366657220616d6f756e74206578636565647320616c6c6f77616e6365\n    data_64ea97ae7457d513c64ccdc791d74b8e0dbe043ffc2a1bdba9184138ac3b5ad4 4f524332303a207472616e7366657220746f20746865207a65726f2061646472657373\n    data_87d6db954c608985f03f8b1fef85ed6dcb004f13fa99eb0d65cfd43383c12a83 4f524332303a2064656372656173656420616c6c6f77616e63652062656c6f77207a65726f\n    data_8b3b2f7361ca6ccaa55146d6345d4981f11bfa0015185087bfcf610e5bc8489a 4f524332303a207472616e7366657220616d6f756e7420657863656564732062616c616e6365\n    data_a3b32387119999786b1ec9d1f53a7e79560c2e33f750b8a96c8e2d14ecb77f91 4f524332303a20617070726f76652066726f6d20746865207a65726f2061646472657373\n    data_b394f3b0695aa74f0153a7d294ced7383d6f167777ff906a2b400f4783ae435c 4f524332303a20617070726f766520746f20746865207a65726f2061646472657373\n    data_bcfde3765840cb5eef6a25d234002120ae0868902ac4a3023b23315ef6e74553 4f524332303a207472616e736665722066726f6d20746865207a65726f2061646472657373\n    data_da8c24ca01df06fe437c579662b59c535302eaae2b6940a10883325abbcd45ca 4f524332303a206275726e20616d6f756e7420657863656564732062616c616e6365\n    data_f70d9d9c27d4d18165be1f03a1f1a5d7bb474afa8cbe6af412b168937e2f3a84 4f524332303a206275726e2066726f6d20746865207a65726f2061646472657373\n\n    auxdata: 0xa265627a7a7231582014ff5de612285fa30a771453d0f99a8be8765ce77afa8765c26e685fbac2e09264736f6c63430005100032\n}\n",
				"bytecode": {
					"linkReferences": {},
					"object": "60806040523480156200001157600080fd5b506000620000276401000000006200016c810204565b60008054600160a060020a031916600160a060020a0383169081178255604051929350917f8be0079c531659141344cd1fd0a4f28419497f9722a3daafe3b4186f6b6457e0908290a35060408051808201909152600a8082527f54657468657220555344000000000000000000000000000000000000000000006020909201918252620000b79160069162000171565b506040805180820190915260048082527f55534454000000000000000000000000000000000000000000000000000000006020909201918252620000fe9160059162000171565b506004805460ff191660121790556a18d0bf423c03d8de0000006003819055336000818152600160209081526040808320859055805194855251929391927fddf252ad1be2c89b69c2b068fc378daa952ba7f163c4a11628f55a4df523b3ef9281900390910190a362000213565b335b90565b828054600181600116156101000203166002900490600052602060002090601f016020900481019282601f10620001b457805160ff1916838001178555620001e4565b82800160010185558215620001e4579182015b82811115620001e4578251825591602001919060010190620001c7565b50620001f2929150620001f6565b5090565b6200016e91905b80821115620001f25760008155600101620001fd565b61119880620002236000396000f3fe608060405234801561001057600080fd5b5060043610610149576000357c010000000000000000000000000000000000000000000000000000000090048063893d20e8116100ca578063a9059cbb1161008e578063a9059cbb14610377578063b09f1266146103a3578063d28d8852146103ab578063dd62ed3e146103b3578063f2fde38b146103e157610149565b8063893d20e8146102fa5780638da5cb5b1461031e57806395d89b4114610326578063a0712d681461032e578063a457c2d71461034b57610149565b806332424aa31161011157806332424aa314610279578063395093511461028157806342966c68146102ad57806370a08231146102ca578063715018a6146102f057610149565b806306fdde031461014e578063095ea7b3146101cb57806318160ddd1461020b57806323b872dd14610225578063313ce5671461025b575b600080fd5b610156610407565b6040805160208082528351818301528351919283929083019185019080838360005b83811015610190578181015183820152602001610178565b50505050905090810190601f1680156101bd5780820380516001836020036101000a031916815260200191505b509250505060405180910390f35b6101f7600480360360408110156101e157600080fd5b50600160a060020a03813516906020013561049d565b604080519115158252519081900360200190f35b6102136104ba565b60408051918252519081900360200190f35b6101f76004803603606081101561023b57600080fd5b50600160a060020a038135811691602081013590911690604001356104c0565b61026361054d565b6040805160ff9092168252519081900360200190f35b610263610556565b6101f76004803603604081101561029757600080fd5b50600160a060020a03813516906020013561055f565b6101f7600480360360208110156102c357600080fd5b50356105b3565b610213600480360360208110156102e057600080fd5b5035600160a060020a03166105ce565b6102f86105e9565b005b6103026106ad565b60408051600160a060020a039092168252519081900360200190f35b6103026106bc565b6101566106cb565b6101f76004803603602081101561034457600080fd5b503561072c565b6101f76004803603604081101561036157600080fd5b50600160a060020a0381351690602001356107ac565b6101f76004803603604081101561038d57600080fd5b50600160a060020a03813516906020013561081a565b61015661082e565b6101566108bc565b610213600480360360408110156103c957600080fd5b50600160a060020a0381358116916020013516610917565b6102f8600480360360208110156103f757600080fd5b5035600160a060020a0316610942565b60068054604080516020601f60026000196101006001881615020190951694909404938401819004810282018101909252828152606093909290918301828280156104935780601f1061046857610100808354040283529160200191610493565b820191906000526020600020905b81548152906001019060200180831161047657829003601f168201915b5050505050905090565b60006104b16104aa6109bb565b84846109bf565b50600192915050565b60035490565b60006104cd848484610ab1565b610543846104d96109bb565b61053e8560405180606001604052806028815260200161102060289139600160a060020a038a166000908152600260205260408120906105176109bb565b600160a060020a03168152602081019190915260400160002054919063ffffffff610c1516565b6109bf565b5060019392505050565b60045460ff1690565b60045460ff1681565b60006104b161056c6109bb565b8461053e856002600061057d6109bb565b600160a060020a03908116825260208083019390935260409182016000908120918c16815292529020549063ffffffff610caf16565b60006105c66105c06109bb565b83610d13565b506001919050565b600160a060020a031660009081526001602052604090205490565b6105f16109bb565b600054600160a060020a03908116911614610656576040805160e560020a62461bcd02815260206004820181905260248201527f4f776e61626c653a2063616c6c6572206973206e6f7420746865206f776e6572604482015290519081900360640190fd5b60008054604051600160a060020a03909116907f8be0079c531659141344cd1fd0a4f28419497f9722a3daafe3b4186f6b6457e0908390a36000805473ffffffffffffffffffffffffffffffffffffffff19169055565b60006106b76106bc565b905090565b600054600160a060020a031690565b60058054604080516020601f60026000196101006001881615020190951694909404938401819004810282018101909252828152606093909290918301828280156104935780601f1061046857610100808354040283529160200191610493565b60006107366109bb565b600054600160a060020a0390811691161461079b576040805160e560020a62461bcd02815260206004820181905260248201527f4f776e61626c653a2063616c6c6572206973206e6f7420746865206f776e6572604482015290519081900360640190fd5b6105c66107a66109bb565b83610e12565b60006104b16107b96109bb565b8461053e8560405180606001604052806025815260200161106b60259139600260006107e36109bb565b600160a060020a03908116825260208083019390935260409182016000908120918d1681529252902054919063ffffffff610c1516565b60006104b16108276109bb565b8484610ab1565b6005805460408051602060026001851615610100026000190190941693909304601f810184900484028201840190925281815292918301828280156108b45780601f10610889576101008083540402835291602001916108b4565b820191906000526020600020905b81548152906001019060200180831161089757829003601f168201915b505050505081565b6006805460408051602060026001851615610100026000190190941693909304601f810184900484028201840190925281815292918301828280156108b45780601f10610889576101008083540402835291602001916108b4565b600160a060020a03918216600090815260026020908152604080832093909416825291909152205490565b61094a6109bb565b600054600160a060020a039081169116146109af576040805160e560020a62461bcd02815260206004820181905260248201527f4f776e61626c653a2063616c6c6572206973206e6f7420746865206f776e6572604482015290519081900360640190fd5b6109b881610f07565b50565b3390565b600160a060020a038316610a075760405160e560020a62461bcd0281526004018080602001828103825260248152602001806110b66024913960400191505060405180910390fd5b600160a060020a038216610a4f5760405160e560020a62461bcd0281526004018080602001828103825260228152602001806110da6022913960400191505060405180910390fd5b600160a060020a03808416600081815260026020908152604080832094871680845294825291829020859055815185815291517f8c5be1e5ebec7d5bd14f71427d1e84f3dd0314c0f7b2291e5b200ac8c7c3b9259281900390910190a3505050565b600160a060020a038316610af95760405160e560020a62461bcd0281526004018080602001828103825260258152602001806110fc6025913960400191505060405180910390fd5b600160a060020a038216610b415760405160e560020a62461bcd0281526004018080602001828103825260238152602001806110486023913960400191505060405180910390fd5b610b848160405180606001604052806026815260200161109060269139600160a060020a038616600090815260016020526040902054919063ffffffff610c1516565b600160a060020a038085166000908152600160205260408082209390935590841681522054610bb9908263ffffffff610caf16565b600160a060020a0380841660008181526001602090815260409182902094909455805185815290519193928716927fddf252ad1be2c89b69c2b068fc378daa952ba7f163c4a11628f55a4df523b3ef92918290030190a3505050565b60008184841115610ca75760405160e560020a62461bcd0281526004018080602001828103825283818151815260200191508051906020019080838360005b83811015610c6c578181015183820152602001610c54565b50505050905090810190601f168015610c995780820380516001836020036101000a031916815260200191505b509250505060405180910390fd5b505050900390565b600082820183811015610d0c576040805160e560020a62461bcd02815260206004820152601b60248201527f536166654d6174683a206164646974696f6e206f766572666c6f770000000000604482015290519081900360640190fd5b9392505050565b600160a060020a038216610d5b5760405160e560020a62461bcd0281526004018080602001828103825260218152602001806111436021913960400191505060405180910390fd5b610d9e8160405180606001604052806022815260200161112160229139600160a060020a038516600090815260016020526040902054919063ffffffff610c1516565b600160a060020a038316600090815260016020526040902055600354610dca908263ffffffff610fb716565b600355604080518281529051600091600160a060020a038516917fddf252ad1be2c89b69c2b068fc378daa952ba7f163c4a11628f55a4df523b3ef9181900360200190a35050565b600160a060020a038216610e70576040805160e560020a62461bcd02815260206004820152601f60248201527f4f524332303a206d696e7420746f20746865207a65726f206164647265737300604482015290519081900360640190fd5b600354610e83908263ffffffff610caf16565b600355600160a060020a038216600090815260016020526040902054610eaf908263ffffffff610caf16565b600160a060020a03831660008181526001602090815260408083209490945583518581529351929391927fddf252ad1be2c89b69c2b068fc378daa952ba7f163c4a11628f55a4df523b3ef9281900390910190a35050565b600160a060020a038116610f4f5760405160e560020a62461bcd028152600401808060200182810382526026815260200180610ffa6026913960400191505060405180910390fd5b60008054604051600160a060020a03808516939216917f8be0079c531659141344cd1fd0a4f28419497f9722a3daafe3b4186f6b6457e091a36000805473ffffffffffffffffffffffffffffffffffffffff1916600160a060020a0392909216919091179055565b6000610d0c83836040518060400160405280601e81526020017f536166654d6174683a207375627472616374696f6e206f766572666c6f770000815250610c1556fe4f776e61626c653a206e6577206f776e657220697320746865207a65726f20616464726573734f524332303a207472616e7366657220616d6f756e74206578636565647320616c6c6f77616e63654f524332303a207472616e7366657220746f20746865207a65726f20616464726573734f524332303a2064656372656173656420616c6c6f77616e63652062656c6f77207a65726f4f524332303a207472616e7366657220616d6f756e7420657863656564732062616c616e63654f524332303a20617070726f76652066726f6d20746865207a65726f20616464726573734f524332303a20617070726f766520746f20746865207a65726f20616464726573734f524332303a207472616e736665722066726f6d20746865207a65726f20616464726573734f524332303a206275726e20616d6f756e7420657863656564732062616c616e63654f524332303a206275726e2066726f6d20746865207a65726f2061646472657373a265627a7a7231582014ff5de612285fa30a771453d0f99a8be8765ce77afa8765c26e685fbac2e09264736f6c63430005100032",
					"opcodes": "PUSH1 0x80 PUSH1 0x40 MSTORE CALLVALUE DUP1 ISZERO PUSH3 0x11 JUMPI PUSH1 0x0 DUP1 REVERT JUMPDEST POP PUSH1 0x0 PUSH3 0x27 PUSH5 0x100000000 PUSH3 0x16C DUP2 MUL DIV JUMP JUMPDEST PUSH1 0x0 DUP1 SLOAD PUSH1 0x1 PUSH1 0xA0 PUSH1 0x2 EXP SUB NOT AND PUSH1 0x1 PUSH1 0xA0 PUSH1 0x2 EXP SUB DUP4 AND SWAP1 DUP2 OR DUP3 SSTORE PUSH1 0x40 MLOAD SWAP3 SWAP4 POP SWAP2 PUSH32 0x8BE0079C531659141344CD1FD0A4F28419497F9722A3DAAFE3B4186F6B6457E0 SWAP1 DUP3 SWAP1 LOG3 POP PUSH1 0x40 DUP1 MLOAD DUP1 DUP3 ADD SWAP1 SWAP2 MSTORE PUSH1 0xA DUP1 DUP3 MSTORE PUSH32 0x5465746865722055534400000000000000000000000000000000000000000000 PUSH1 0x20 SWAP1 SWAP3 ADD SWAP2 DUP3 MSTORE PUSH3 0xB7 SWAP2 PUSH1 0x6 SWAP2 PUSH3 0x171 JUMP JUMPDEST POP PUSH1 0x40 DUP1 MLOAD DUP1 DUP3 ADD SWAP1 SWAP2 MSTORE PUSH1 0x4 DUP1 DUP3 MSTORE PUSH32 0x5553445400000000000000000000000000000000000000000000000000000000 PUSH1 0x20 SWAP1 SWAP3 ADD SWAP2 DUP3 MSTORE PUSH3 0xFE SWAP2 PUSH1 0x5 SWAP2 PUSH3 0x171 JUMP JUMPDEST POP PUSH1 0x4 DUP1 SLOAD PUSH1 0xFF NOT AND PUSH1 0x12 OR SWAP1 SSTORE PUSH11 0x18D0BF423C03D8DE000000 PUSH1 0x3 DUP2 SWAP1 SSTORE CALLER PUSH1 0x0 DUP2 DUP2 MSTORE PUSH1 0x1 PUSH1 0x20 SWAP1 DUP2 MSTORE PUSH1 0x40 DUP1 DUP4 KECCAK256 DUP6 SWAP1 SSTORE DUP1 MLOAD SWAP5 DUP6 MSTORE MLOAD SWAP3 SWAP4 SWAP2 SWAP3 PUSH32 0xDDF252AD1BE2C89B69C2B068FC378DAA952BA7F163C4A11628F55A4DF523B3EF SWAP3 DUP2 SWAP1 SUB SWAP1 SWAP2 ADD SWAP1 LOG3 PUSH3 0x213 JUMP JUMPDEST CALLER JUMPDEST SWAP1 JUMP JUMPDEST DUP3 DUP1 SLOAD PUSH1 0x1 DUP2 PUSH1 0x1 AND ISZERO PUSH2 0x100 MUL SUB AND PUSH1 0x2 SWAP1 DIV SWAP1 PUSH1 0x0 MSTORE PUSH1 0x20 PUSH1 0x0 KECCAK256 SWAP1 PUSH1 0x1F ADD PUSH1 0x20 SWAP1 DIV DUP2 ADD SWAP3 DUP3 PUSH1 0x1F LT PUSH3 0x1B4 JUMPI DUP1 MLOAD PUSH1 0xFF NOT AND DUP4 DUP1 ADD OR DUP6 SSTORE PUSH3 0x1E4 JUMP JUMPDEST DUP3 DUP1 ADD PUSH1 0x1 ADD DUP6 SSTORE DUP3 ISZERO PUSH3 0x1E4 JUMPI SWAP2 DUP3 ADD JUMPDEST DUP3 DUP2 GT ISZERO PUSH3 0x1E4 JUMPI DUP3 MLOAD DUP3 SSTORE SWAP2 PUSH1 0x20 ADD SWAP2 SWAP1 PUSH1 0x1 ADD SWAP1 PUSH3 0x1C7 JUMP JUMPDEST POP PUSH3 0x1F2 SWAP3 SWAP2 POP PUSH3 0x1F6 JUMP JUMPDEST POP SWAP1 JUMP JUMPDEST PUSH3 0x16E SWAP2 SWAP1 JUMPDEST DUP1 DUP3 GT ISZERO PUSH3 0x1F2 JUMPI PUSH1 0x0 DUP2 SSTORE PUSH1 0x1 ADD PUSH3 0x1FD JUMP JUMPDEST PUSH2 0x1198 DUP1 PUSH3 0x223 PUSH1 0x0 CODECOPY PUSH1 0x0 RETURN INVALID PUSH1 0x80 PUSH1 0x40 MSTORE CALLVALUE DUP1 ISZERO PUSH2 0x10 JUMPI PUSH1 0x0 DUP1 REVERT JUMPDEST POP PUSH1 0x4 CALLDATASIZE LT PUSH2 0x149 JUMPI PUSH1 0x0 CALLDATALOAD PUSH29 0x100000000000000000000000000000000000000000000000000000000 SWAP1 DIV DUP1 PUSH4 0x893D20E8 GT PUSH2 0xCA JUMPI DUP1 PUSH4 0xA9059CBB GT PUSH2 0x8E JUMPI DUP1 PUSH4 0xA9059CBB EQ PUSH2 0x377 JUMPI DUP1 PUSH4 0xB09F1266 EQ PUSH2 0x3A3 JUMPI DUP1 PUSH4 0xD28D8852 EQ PUSH2 0x3AB JUMPI DUP1 PUSH4 0xDD62ED3E EQ PUSH2 0x3B3 JUMPI DUP1 PUSH4 0xF2FDE38B EQ PUSH2 0x3E1 JUMPI PUSH2 0x149 JUMP JUMPDEST DUP1 PUSH4 0x893D20E8 EQ PUSH2 0x2FA JUMPI DUP1 PUSH4 0x8DA5CB5B EQ PUSH2 0x31E JUMPI DUP1 PUSH4 0x95D89B41 EQ PUSH2 0x326 JUMPI DUP1 PUSH4 0xA0712D68 EQ PUSH2 0x32E JUMPI DUP1 PUSH4 0xA457C2D7 EQ PUSH2 0x34B JUMPI PUSH2 0x149 JUMP JUMPDEST DUP1 PUSH4 0x32424AA3 GT PUSH2 0x111 JUMPI DUP1 PUSH4 0x32424AA3 EQ PUSH2 0x279 JUMPI DUP1 PUSH4 0x39509351 EQ PUSH2 0x281 JUMPI DUP1 PUSH4 0x42966C68 EQ PUSH2 0x2AD JUMPI DUP1 PUSH4 0x70A08231 EQ PUSH2 0x2CA JUMPI DUP1 PUSH4 0x715018A6 EQ PUSH2 0x2F0 JUMPI PUSH2 0x149 JUMP JUMPDEST DUP1 PUSH4 0x6FDDE03 EQ PUSH2 0x14E JUMPI DUP1 PUSH4 0x95EA7B3 EQ PUSH2 0x1CB JUMPI DUP1 PUSH4 0x18160DDD EQ PUSH2 0x20B JUMPI DUP1 PUSH4 0x23B872DD EQ PUSH2 0x225 JUMPI DUP1 PUSH4 0x313CE567 EQ PUSH2 0x25B JUMPI JUMPDEST PUSH1 0x0 DUP1 REVERT JUMPDEST PUSH2 0x156 PUSH2 0x407 JUMP JUMPDEST PUSH1 0x40 DUP1 MLOAD PUSH1 0x20 DUP1 DUP3 MSTORE DUP4 MLOAD DUP2 DUP4 ADD MSTORE DUP4 MLOAD SWAP2 SWAP3 DUP4 SWAP3 SWAP1 DUP4 ADD SWAP2 DUP6 ADD SWAP1 DUP1 DUP4 DUP4 PUSH1 0x0 JUMPDEST DUP4 DUP2 LT ISZERO PUSH2 0x190 JUMPI DUP2 DUP2 ADD MLOAD DUP4 DUP3 ADD MSTORE PUSH1 0x20 ADD PUSH2 0x178 JUMP JUMPDEST POP POP POP POP SWAP1 POP SWAP1 DUP2 ADD SWAP1 PUSH1 0x1F AND DUP1 ISZERO PUSH2 0x1BD JUMPI DUP1 DUP3 SUB DUP1 MLOAD PUSH1 0x1 DUP4 PUSH1 0x20 SUB PUSH2 0x100 EXP SUB NOT AND DUP2 MSTORE PUSH1 0x20 ADD SWAP2 POP JUMPDEST POP SWAP3 POP POP POP PUSH1 0x40 MLOAD DUP1 SWAP2 SUB SWAP1 RETURN JUMPDEST PUSH2 0x1F7 PUSH1 0x4 DUP1 CALLDATASIZE SUB PUSH1 0x40 DUP2 LT ISZERO PUSH2 0x1E1 JUMPI PUSH1 0x0 DUP1 REVERT JUMPDEST POP PUSH1 0x1 PUSH1 0xA0 PUSH1 0x2 EXP SUB DUP2 CALLDATALOAD AND SWAP1 PUSH1 0x20 ADD CALLDATALOAD PUSH2 0x49D JUMP JUMPDEST PUSH1 0x40 DUP1 MLOAD SWAP2 ISZERO ISZERO DUP3 MSTORE MLOAD SWAP1 DUP2 SWAP1 SUB PUSH1 0x20 ADD SWAP1 RETURN JUMPDEST PUSH2 0x213 PUSH2 0x4BA JUMP JUMPDEST PUSH1 0x40 DUP1 MLOAD SWAP2 DUP3 MSTORE MLOAD SWAP1 DUP2 SWAP1 SUB PUSH1 0x20 ADD SWAP1 RETURN JUMPDEST PUSH2 0x1F7 PUSH1 0x4 DUP1 CALLDATASIZE SUB PUSH1 0x60 DUP2 LT ISZERO PUSH2 0x23B JUMPI PUSH1 0x0 DUP1 REVERT JUMPDEST POP PUSH1 0x1 PUSH1 0xA0 PUSH1 0x2 EXP SUB DUP2 CALLDATALOAD DUP2 AND SWAP2 PUSH1 0x20 DUP2 ADD CALLDATALOAD SWAP1 SWAP2 AND SWAP1 PUSH1 0x40 ADD CALLDATALOAD PUSH2 0x4C0 JUMP JUMPDEST PUSH2 0x263 PUSH2 0x54D JUMP JUMPDEST PUSH1 0x40 DUP1 MLOAD PUSH1 0xFF SWAP1 SWAP3 AND DUP3 MSTORE MLOAD SWAP1 DUP2 SWAP1 SUB PUSH1 0x20 ADD SWAP1 RETURN JUMPDEST PUSH2 0x263 PUSH2 0x556 JUMP JUMPDEST PUSH2 0x1F7 PUSH1 0x4 DUP1 CALLDATASIZE SUB PUSH1 0x40 DUP2 LT ISZERO PUSH2 0x297 JUMPI PUSH1 0x0 DUP1 REVERT JUMPDEST POP PUSH1 0x1 PUSH1 0xA0 PUSH1 0x2 EXP SUB DUP2 CALLDATALOAD AND SWAP1 PUSH1 0x20 ADD CALLDATALOAD PUSH2 0x55F JUMP JUMPDEST PUSH2 0x1F7 PUSH1 0x4 DUP1 CALLDATASIZE SUB PUSH1 0x20 DUP2 LT ISZERO PUSH2 0x2C3 JUMPI PUSH1 0x0 DUP1 REVERT JUMPDEST POP CALLDATALOAD PUSH2 0x5B3 JUMP JUMPDEST PUSH2 0x213 PUSH1 0x4 DUP1 CALLDATASIZE SUB PUSH1 0x20 DUP2 LT ISZERO PUSH2 0x2E0 JUMPI PUSH1 0x0 DUP1 REVERT JUMPDEST POP CALLDATALOAD PUSH1 0x1 PUSH1 0xA0 PUSH1 0x2 EXP SUB AND PUSH2 0x5CE JUMP JUMPDEST PUSH2 0x2F8 PUSH2 0x5E9 JUMP JUMPDEST STOP JUMPDEST PUSH2 0x302 PUSH2 0x6AD JUMP JUMPDEST PUSH1 0x40 DUP1 MLOAD PUSH1 0x1 PUSH1 0xA0 PUSH1 0x2 EXP SUB SWAP1 SWAP3 AND DUP3 MSTORE MLOAD SWAP1 DUP2 SWAP1 SUB PUSH1 0x20 ADD SWAP1 RETURN JUMPDEST PUSH2 0x302 PUSH2 0x6BC JUMP JUMPDEST PUSH2 0x156 PUSH2 0x6CB JUMP JUMPDEST PUSH2 0x1F7 PUSH1 0x4 DUP1 CALLDATASIZE SUB PUSH1 0x20 DUP2 LT ISZERO PUSH2 0x344 JUMPI PUSH1 0x0 DUP1 REVERT JUMPDEST POP CALLDATALOAD PUSH2 0x72C JUMP JUMPDEST PUSH2 0x1F7 PUSH1 0x4 DUP1 CALLDATASIZE SUB PUSH1 0x40 DUP2 LT ISZERO PUSH2 0x361 JUMPI PUSH1 0x0 DUP1 REVERT JUMPDEST POP PUSH1 0x1 PUSH1 0xA0 PUSH1 0x2 EXP SUB DUP2 CALLDATALOAD AND SWAP1 PUSH1 0x20 ADD CALLDATALOAD PUSH2 0x7AC JUMP JUMPDEST PUSH2 0x1F7 PUSH1 0x4 DUP1 CALLDATASIZE SUB PUSH1 0x40 DUP2 LT ISZERO PUSH2 0x38D JUMPI PUSH1 0x0 DUP1 REVERT JUMPDEST POP PUSH1 0x1 PUSH1 0xA0 PUSH1 0x2 EXP SUB DUP2 CALLDATALOAD AND SWAP1 PUSH1 0x20 ADD CALLDATALOAD PUSH2 0x81A JUMP JUMPDEST PUSH2 0x156 PUSH2 0x82E JUMP JUMPDEST PUSH2 0x156 PUSH2 0x8BC JUMP JUMPDEST PUSH2 0x213 PUSH1 0x4 DUP1 CALLDATASIZE SUB PUSH1 0x40 DUP2 LT ISZERO PUSH2 0x3C9 JUMPI PUSH1 0x0 DUP1 REVERT JUMPDEST POP PUSH1 0x1 PUSH1 0xA0 PUSH1 0x2 EXP SUB DUP2 CALLDATALOAD DUP2 AND SWAP2 PUSH1 0x20 ADD CALLDATALOAD AND PUSH2 0x917 JUMP JUMPDEST PUSH2 0x2F8 PUSH1 0x4 DUP1 CALLDATASIZE SUB PUSH1 0x20 DUP2 LT ISZERO PUSH2 0x3F7 JUMPI PUSH1 0x0 DUP1 REVERT JUMPDEST POP CALLDATALOAD PUSH1 0x1 PUSH1 0xA0 PUSH1 0x2 EXP SUB AND PUSH2 0x942 JUMP JUMPDEST PUSH1 0x6 DUP1 SLOAD PUSH1 0x40 DUP1 MLOAD PUSH1 0x20 PUSH1 0x1F PUSH1 0x2 PUSH1 0x0 NOT PUSH2 0x100 PUSH1 0x1 DUP9 AND ISZERO MUL ADD SWAP1 SWAP6 AND SWAP5 SWAP1 SWAP5 DIV SWAP4 DUP5 ADD DUP2 SWAP1 DIV DUP2 MUL DUP3 ADD DUP2 ADD SWAP1 SWAP3 MSTORE DUP3 DUP2 MSTORE PUSH1 0x60 SWAP4 SWAP1 SWAP3 SWAP1 SWAP2 DUP4 ADD DUP3 DUP3 DUP1 ISZERO PUSH2 0x493 JUMPI DUP1 PUSH1 0x1F LT PUSH2 0x468 JUMPI PUSH2 0x100 DUP1 DUP4 SLOAD DIV MUL DUP4 MSTORE SWAP2 PUSH1 0x20 ADD SWAP2 PUSH2 0x493 JUMP JUMPDEST DUP3 ADD SWAP2 SWAP1 PUSH1 0x0 MSTORE PUSH1 0x20 PUSH1 0x0 KECCAK256 SWAP1 JUMPDEST DUP2 SLOAD DUP2 MSTORE SWAP1 PUSH1 0x1 ADD SWAP1 PUSH1 0x20 ADD DUP1 DUP4 GT PUSH2 0x476 JUMPI DUP3 SWAP1 SUB PUSH1 0x1F AND DUP3 ADD SWAP2 JUMPDEST POP POP POP POP POP SWAP1 POP SWAP1 JUMP JUMPDEST PUSH1 0x0 PUSH2 0x4B1 PUSH2 0x4AA PUSH2 0x9BB JUMP JUMPDEST DUP5 DUP5 PUSH2 0x9BF JUMP JUMPDEST POP PUSH1 0x1 SWAP3 SWAP2 POP POP JUMP JUMPDEST PUSH1 0x3 SLOAD SWAP1 JUMP JUMPDEST PUSH1 0x0 PUSH2 0x4CD DUP5 DUP5 DUP5 PUSH2 0xAB1 JUMP JUMPDEST PUSH2 0x543 DUP5 PUSH2 0x4D9 PUSH2 0x9BB JUMP JUMPDEST PUSH2 0x53E DUP6 PUSH1 0x40 MLOAD DUP1 PUSH1 0x60 ADD PUSH1 0x40 MSTORE DUP1 PUSH1 0x28 DUP2 MSTORE PUSH1 0x20 ADD PUSH2 0x1020 PUSH1 0x28 SWAP2 CODECOPY PUSH1 0x1 PUSH1 0xA0 PUSH1 0x2 EXP SUB DUP11 AND PUSH1 0x0 SWAP1 DUP2 MSTORE PUSH1 0x2 PUSH1 0x20 MSTORE PUSH1 0x40 DUP2 KECCAK256 SWAP1 PUSH2 0x517 PUSH2 0x9BB JUMP JUMPDEST PUSH1 0x1 PUSH1 0xA0 PUSH1 0x2 EXP SUB AND DUP2 MSTORE PUSH1 0x20 DUP2 ADD SWAP2 SWAP1 SWAP2 MSTORE PUSH1 0x40 ADD PUSH1 0x0 KECCAK256 SLOAD SWAP2 SWAP1 PUSH4 0xFFFFFFFF PUSH2 0xC15 AND JUMP JUMPDEST PUSH2 0x9BF JUMP JUMPDEST POP PUSH1 0x1 SWAP4 SWAP3 POP POP POP JUMP JUMPDEST PUSH1 0x4 SLOAD PUSH1 0xFF AND SWAP1 JUMP JUMPDEST PUSH1 0x4 SLOAD PUSH1 0xFF AND DUP2 JUMP JUMPDEST PUSH1 0x0 PUSH2 0x4B1 PUSH2 0x56C PUSH2 0x9BB JUMP JUMPDEST DUP5 PUSH2 0x53E DUP6 PUSH1 0x2 PUSH1 0x0 PUSH2 0x57D PUSH2 0x9BB JUMP JUMPDEST PUSH1 0x1 PUSH1 0xA0 PUSH1 0x2 EXP SUB SWAP1 DUP2 AND DUP3 MSTORE PUSH1 0x20 DUP1 DUP4 ADD SWAP4 SWAP1 SWAP4 MSTORE PUSH1 0x40 SWAP2 DUP3 ADD PUSH1 0x0 SWAP1 DUP2 KECCAK256 SWAP2 DUP13 AND DUP2 MSTORE SWAP3 MSTORE SWAP1 KECCAK256 SLOAD SWAP1 PUSH4 0xFFFFFFFF PUSH2 0xCAF AND JUMP JUMPDEST PUSH1 0x0 PUSH2 0x5C6 PUSH2 0x5C0 PUSH2 0x9BB JUMP JUMPDEST DUP4 PUSH2 0xD13 JUMP JUMPDEST POP PUSH1 0x1 SWAP2 SWAP1 POP JUMP JUMPDEST PUSH1 0x1 PUSH1 0xA0 PUSH1 0x2 EXP SUB AND PUSH1 0x0 SWAP1 DUP2 MSTORE PUSH1 0x1 PUSH1 0x20 MSTORE PUSH1 0x40 SWAP1 KECCAK256 SLOAD SWAP1 JUMP JUMPDEST PUSH2 0x5F1 PUSH2 0x9BB JUMP JUMPDEST PUSH1 0x0 SLOAD PUSH1 0x1 PUSH1 0xA0 PUSH1 0x2 EXP SUB SWAP1 DUP2 AND SWAP2 AND EQ PUSH2 0x656 JUMPI PUSH1 0x40 DUP1 MLOAD PUSH1 0xE5 PUSH1 0x2 EXP PUSH3 0x461BCD MUL DUP2 MSTORE PUSH1 0x20 PUSH1 0x4 DUP3 ADD DUP2 SWAP1 MSTORE PUSH1 0x24 DUP3 ADD MSTORE PUSH32 0x4F776E61626C653A2063616C6C6572206973206E6F7420746865206F776E6572 PUSH1 0x44 DUP3 ADD MSTORE SWAP1 MLOAD SWAP1 DUP2 SWAP1 SUB PUSH1 0x64 ADD SWAP1 REVERT JUMPDEST PUSH1 0x0 DUP1 SLOAD PUSH1 0x40 MLOAD PUSH1 0x1 PUSH1 0xA0 PUSH1 0x2 EXP SUB SWAP1 SWAP2 AND SWAP1 PUSH32 0x8BE0079C531659141344CD1FD0A4F28419497F9722A3DAAFE3B4186F6B6457E0 SWAP1 DUP4 SWAP1 LOG3 PUSH1 0x0 DUP1 SLOAD PUSH20 0xFFFFFFFFFFFFFFFFFFFFFFFFFFFFFFFFFFFFFFFF NOT AND SWAP1 SSTORE JUMP JUMPDEST PUSH1 0x0 PUSH2 0x6B7 PUSH2 0x6BC JUMP JUMPDEST SWAP1 POP SWAP1 JUMP JUMPDEST PUSH1 0x0 SLOAD PUSH1 0x1 PUSH1 0xA0 PUSH1 0x2 EXP SUB AND SWAP1 JUMP JUMPDEST PUSH1 0x5 DUP1 SLOAD PUSH1 0x40 DUP1 MLOAD PUSH1 0x20 PUSH1 0x1F PUSH1 0x2 PUSH1 0x0 NOT PUSH2 0x100 PUSH1 0x1 DUP9 AND ISZERO MUL ADD SWAP1 SWAP6 AND SWAP5 SWAP1 SWAP5 DIV SWAP4 DUP5 ADD DUP2 SWAP1 DIV DUP2 MUL DUP3 ADD DUP2 ADD SWAP1 SWAP3 MSTORE DUP3 DUP2 MSTORE PUSH1 0x60 SWAP4 SWAP1 SWAP3 SWAP1 SWAP2 DUP4 ADD DUP3 DUP3 DUP1 ISZERO PUSH2 0x493 JUMPI DUP1 PUSH1 0x1F LT PUSH2 0x468 JUMPI PUSH2 0x100 DUP1 DUP4 SLOAD DIV MUL DUP4 MSTORE SWAP2 PUSH1 0x20 ADD SWAP2 PUSH2 0x493 JUMP JUMPDEST PUSH1 0x0 PUSH2 0x736 PUSH2 0x9BB JUMP JUMPDEST PUSH1 0x0 SLOAD PUSH1 0x1 PUSH1 0xA0 PUSH1 0x2 EXP SUB SWAP1 DUP2 AND SWAP2 AND EQ PUSH2 0x79B JUMPI PUSH1 0x40 DUP1 MLOAD PUSH1 0xE5 PUSH1 0x2 EXP PUSH3 0x461BCD MUL DUP2 MSTORE PUSH1 0x20 PUSH1 0x4 DUP3 ADD DUP2 SWAP1 MSTORE PUSH1 0x24 DUP3 ADD MSTORE PUSH32 0x4F776E61626C653A2063616C6C6572206973206E6F7420746865206F776E6572 PUSH1 0x44 DUP3 ADD MSTORE SWAP1 MLOAD SWAP1 DUP2 SWAP1 SUB PUSH1 0x64 ADD SWAP1 REVERT JUMPDEST PUSH2 0x5C6 PUSH2 0x7A6 PUSH2 0x9BB JUMP JUMPDEST DUP4 PUSH2 0xE12 JUMP JUMPDEST PUSH1 0x0 PUSH2 0x4B1 PUSH2 0x7B9 PUSH2 0x9BB JUMP JUMPDEST DUP5 PUSH2 0x53E DUP6 PUSH1 0x40 MLOAD DUP1 PUSH1 0x60 ADD PUSH1 0x40 MSTORE DUP1 PUSH1 0x25 DUP2 MSTORE PUSH1 0x20 ADD PUSH2 0x106B PUSH1 0x25 SWAP2 CODECOPY PUSH1 0x2 PUSH1 0x0 PUSH2 0x7E3 PUSH2 0x9BB JUMP JUMPDEST PUSH1 0x1 PUSH1 0xA0 PUSH1 0x2 EXP SUB SWAP1 DUP2 AND DUP3 MSTORE PUSH1 0x20 DUP1 DUP4 ADD SWAP4 SWAP1 SWAP4 MSTORE PUSH1 0x40 SWAP2 DUP3 ADD PUSH1 0x0 SWAP1 DUP2 KECCAK256 SWAP2 DUP14 AND DUP2 MSTORE SWAP3 MSTORE SWAP1 KECCAK256 SLOAD SWAP2 SWAP1 PUSH4 0xFFFFFFFF PUSH2 0xC15 AND JUMP JUMPDEST PUSH1 0x0 PUSH2 0x4B1 PUSH2 0x827 PUSH2 0x9BB JUMP JUMPDEST DUP5 DUP5 PUSH2 0xAB1 JUMP JUMPDEST PUSH1 0x5 DUP1 SLOAD PUSH1 0x40 DUP1 MLOAD PUSH1 0x20 PUSH1 0x2 PUSH1 0x1 DUP6 AND ISZERO PUSH2 0x100 MUL PUSH1 0x0 NOT ADD SWAP1 SWAP5 AND SWAP4 SWAP1 SWAP4 DIV PUSH1 0x1F DUP2 ADD DUP5 SWAP1 DIV DUP5 MUL DUP3 ADD DUP5 ADD SWAP1 SWAP3 MSTORE DUP2 DUP2 MSTORE SWAP3 SWAP2 DUP4 ADD DUP3 DUP3 DUP1 ISZERO PUSH2 0x8B4 JUMPI DUP1 PUSH1 0x1F LT PUSH2 0x889 JUMPI PUSH2 0x100 DUP1 DUP4 SLOAD DIV MUL DUP4 MSTORE SWAP2 PUSH1 0x20 ADD SWAP2 PUSH2 0x8B4 JUMP JUMPDEST DUP3 ADD SWAP2 SWAP1 PUSH1 0x0 MSTORE PUSH1 0x20 PUSH1 0x0 KECCAK256 SWAP1 JUMPDEST DUP2 SLOAD DUP2 MSTORE SWAP1 PUSH1 0x1 ADD SWAP1 PUSH1 0x20 ADD DUP1 DUP4 GT PUSH2 0x897 JUMPI DUP3 SWAP1 SUB PUSH1 0x1F AND DUP3 ADD SWAP2 JUMPDEST POP POP POP POP POP DUP2 JUMP JUMPDEST PUSH1 0x6 DUP1 SLOAD PUSH1 0x40 DUP1 MLOAD PUSH1 0x20 PUSH1 0x2 PUSH1 0x1 DUP6 AND ISZERO PUSH2 0x100 MUL PUSH1 0x0 NOT ADD SWAP1 SWAP5 AND SWAP4 SWAP1 SWAP4 DIV PUSH1 0x1F DUP2 ADD DUP5 SWAP1 DIV DUP5 MUL DUP3 ADD DUP5 ADD SWAP1 SWAP3 MSTORE DUP2 DUP2 MSTORE SWAP3 SWAP2 DUP4 ADD DUP3 DUP3 DUP1 ISZERO PUSH2 0x8B4 JUMPI DUP1 PUSH1 0x1F LT PUSH2 0x889 JUMPI PUSH2 0x100 DUP1 DUP4 SLOAD DIV MUL DUP4 MSTORE SWAP2 PUSH1 0x20 ADD SWAP2 PUSH2 0x8B4 JUMP JUMPDEST PUSH1 0x1 PUSH1 0xA0 PUSH1 0x2 EXP SUB SWAP2 DUP3 AND PUSH1 0x0 SWAP1 DUP2 MSTORE PUSH1 0x2 PUSH1 0x20 SWAP1 DUP2 MSTORE PUSH1 0x40 DUP1 DUP4 KECCAK256 SWAP4 SWAP1 SWAP5 AND DUP3 MSTORE SWAP2 SWAP1 SWAP2 MSTORE KECCAK256 SLOAD SWAP1 JUMP JUMPDEST PUSH2 0x94A PUSH2 0x9BB JUMP JUMPDEST PUSH1 0x0 SLOAD PUSH1 0x1 PUSH1 0xA0 PUSH1 0x2 EXP SUB SWAP1 DUP2 AND SWAP2 AND EQ PUSH2 0x9AF JUMPI PUSH1 0x40 DUP1 MLOAD PUSH1 0xE5 PUSH1 0x2 EXP PUSH3 0x461BCD MUL DUP2 MSTORE PUSH1 0x20 PUSH1 0x4 DUP3 ADD DUP2 SWAP1 MSTORE PUSH1 0x24 DUP3 ADD MSTORE PUSH32 0x4F776E61626C653A2063616C6C6572206973206E6F7420746865206F776E6572 PUSH1 0x44 DUP3 ADD MSTORE SWAP1 MLOAD SWAP1 DUP2 SWAP1 SUB PUSH1 0x64 ADD SWAP1 REVERT JUMPDEST PUSH2 0x9B8 DUP2 PUSH2 0xF07 JUMP JUMPDEST POP JUMP JUMPDEST CALLER SWAP1 JUMP JUMPDEST PUSH1 0x1 PUSH1 0xA0 PUSH1 0x2 EXP SUB DUP4 AND PUSH2 0xA07 JUMPI PUSH1 0x40 MLOAD PUSH1 0xE5 PUSH1 0x2 EXP PUSH3 0x461BCD MUL DUP2 MSTORE PUSH1 0x4 ADD DUP1 DUP1 PUSH1 0x20 ADD DUP3 DUP2 SUB DUP3 MSTORE PUSH1 0x24 DUP2 MSTORE PUSH1 0x20 ADD DUP1 PUSH2 0x10B6 PUSH1 0x24 SWAP2 CODECOPY PUSH1 0x40 ADD SWAP2 POP POP PUSH1 0x40 MLOAD DUP1 SWAP2 SUB SWAP1 REVERT JUMPDEST PUSH1 0x1 PUSH1 0xA0 PUSH1 0x2 EXP SUB DUP3 AND PUSH2 0xA4F JUMPI PUSH1 0x40 MLOAD PUSH1 0xE5 PUSH1 0x2 EXP PUSH3 0x461BCD MUL DUP2 MSTORE PUSH1 0x4 ADD DUP1 DUP1 PUSH1 0x20 ADD DUP3 DUP2 SUB DUP3 MSTORE PUSH1 0x22 DUP2 MSTORE PUSH1 0x20 ADD DUP1 PUSH2 0x10DA PUSH1 0x22 SWAP2 CODECOPY PUSH1 0x40 ADD SWAP2 POP POP PUSH1 0x40 MLOAD DUP1 SWAP2 SUB SWAP1 REVERT JUMPDEST PUSH1 0x1 PUSH1 0xA0 PUSH1 0x2 EXP SUB DUP1 DUP5 AND PUSH1 0x0 DUP2 DUP2 MSTORE PUSH1 0x2 PUSH1 0x20 SWAP1 DUP2 MSTORE PUSH1 0x40 DUP1 DUP4 KECCAK256 SWAP5 DUP8 AND DUP1 DUP5 MSTORE SWAP5 DUP3 MSTORE SWAP2 DUP3 SWAP1 KECCAK256 DUP6 SWAP1 SSTORE DUP2 MLOAD DUP6 DUP2 MSTORE SWAP2 MLOAD PUSH32 0x8C5BE1E5EBEC7D5BD14F71427D1E84F3DD0314C0F7B2291E5B200AC8C7C3B925 SWAP3 DUP2 SWAP1 SUB SWAP1 SWAP2 ADD SWAP1 LOG3 POP POP POP JUMP JUMPDEST PUSH1 0x1 PUSH1 0xA0 PUSH1 0x2 EXP SUB DUP4 AND PUSH2 0xAF9 JUMPI PUSH1 0x40 MLOAD PUSH1 0xE5 PUSH1 0x2 EXP PUSH3 0x461BCD MUL DUP2 MSTORE PUSH1 0x4 ADD DUP1 DUP1 PUSH1 0x20 ADD DUP3 DUP2 SUB DUP3 MSTORE PUSH1 0x25 DUP2 MSTORE PUSH1 0x20 ADD DUP1 PUSH2 0x10FC PUSH1 0x25 SWAP2 CODECOPY PUSH1 0x40 ADD SWAP2 POP POP PUSH1 0x40 MLOAD DUP1 SWAP2 SUB SWAP1 REVERT JUMPDEST PUSH1 0x1 PUSH1 0xA0 PUSH1 0x2 EXP SUB DUP3 AND PUSH2 0xB41 JUMPI PUSH1 0x40 MLOAD PUSH1 0xE5 PUSH1 0x2 EXP PUSH3 0x461BCD MUL DUP2 MSTORE PUSH1 0x4 ADD DUP1 DUP1 PUSH1 0x20 ADD DUP3 DUP2 SUB DUP3 MSTORE PUSH1 0x23 DUP2 MSTORE PUSH1 0x20 ADD DUP1 PUSH2 0x1048 PUSH1 0x23 SWAP2 CODECOPY PUSH1 0x40 ADD SWAP2 POP POP PUSH1 0x40 MLOAD DUP1 SWAP2 SUB SWAP1 REVERT JUMPDEST PUSH2 0xB84 DUP2 PUSH1 0x40 MLOAD DUP1 PUSH1 0x60 ADD PUSH1 0x40 MSTORE DUP1 PUSH1 0x26 DUP2 MSTORE PUSH1 0x20 ADD PUSH2 0x1090 PUSH1 0x26 SWAP2 CODECOPY PUSH1 0x1 PUSH1 0xA0 PUSH1 0x2 EXP SUB DUP7 AND PUSH1 0x0 SWAP1 DUP2 MSTORE PUSH1 0x1 PUSH1 0x20 MSTORE PUSH1 0x40 SWAP1 KECCAK256 SLOAD SWAP2 SWAP1 PUSH4 0xFFFFFFFF PUSH2 0xC15 AND JUMP JUMPDEST PUSH1 0x1 PUSH1 0xA0 PUSH1 0x2 EXP SUB DUP1 DUP6 AND PUSH1 0x0 SWAP1 DUP2 MSTORE PUSH1 0x1 PUSH1 0x20 MSTORE PUSH1 0x40 DUP1 DUP3 KECCAK256 SWAP4 SWAP1 SWAP4 SSTORE SWAP1 DUP5 AND DUP2 MSTORE KECCAK256 SLOAD PUSH2 0xBB9 SWAP1 DUP3 PUSH4 0xFFFFFFFF PUSH2 0xCAF AND JUMP JUMPDEST PUSH1 0x1 PUSH1 0xA0 PUSH1 0x2 EXP SUB DUP1 DUP5 AND PUSH1 0x0 DUP2 DUP2 MSTORE PUSH1 0x1 PUSH1 0x20 SWAP1 DUP2 MSTORE PUSH1 0x40 SWAP2 DUP3 SWAP1 KECCAK256 SWAP5 SWAP1 SWAP5 SSTORE DUP1 MLOAD DUP6 DUP2 MSTORE SWAP1 MLOAD SWAP2 SWAP4 SWAP3 DUP8 AND SWAP3 PUSH32 0xDDF252AD1BE2C89B69C2B068FC378DAA952BA7F163C4A11628F55A4DF523B3EF SWAP3 SWAP2 DUP3 SWAP1 SUB ADD SWAP1 LOG3 POP POP POP JUMP JUMPDEST PUSH1 0x0 DUP2 DUP5 DUP5 GT ISZERO PUSH2 0xCA7 JUMPI PUSH1 0x40 MLOAD PUSH1 0xE5 PUSH1 0x2 EXP PUSH3 0x461BCD MUL DUP2 MSTORE PUSH1 0x4 ADD DUP1 DUP1 PUSH1 0x20 ADD DUP3 DUP2 SUB DUP3 MSTORE DUP4 DUP2 DUP2 MLOAD DUP2 MSTORE PUSH1 0x20 ADD SWAP2 POP DUP1 MLOAD SWAP1 PUSH1 0x20 ADD SWAP1 DUP1 DUP4 DUP4 PUSH1 0x0 JUMPDEST DUP4 DUP2 LT ISZERO PUSH2 0xC6C JUMPI DUP2 DUP2 ADD MLOAD DUP4 DUP3 ADD MSTORE PUSH1 0x20 ADD PUSH2 0xC54 JUMP JUMPDEST POP POP POP POP SWAP1 POP SWAP1 DUP2 ADD SWAP1 PUSH1 0x1F AND DUP1 ISZERO PUSH2 0xC99 JUMPI DUP1 DUP3 SUB DUP1 MLOAD PUSH1 0x1 DUP4 PUSH1 0x20 SUB PUSH2 0x100 EXP SUB NOT AND DUP2 MSTORE PUSH1 0x20 ADD SWAP2 POP JUMPDEST POP SWAP3 POP POP POP PUSH1 0x40 MLOAD DUP1 SWAP2 SUB SWAP1 REVERT JUMPDEST POP POP POP SWAP1 SUB SWAP1 JUMP JUMPDEST PUSH1 0x0 DUP3 DUP3 ADD DUP4 DUP2 LT ISZERO PUSH2 0xD0C JUMPI PUSH1 0x40 DUP1 MLOAD PUSH1 0xE5 PUSH1 0x2 EXP PUSH3 0x461BCD MUL DUP2 MSTORE PUSH1 0x20 PUSH1 0x4 DUP3 ADD MSTORE PUSH1 0x1B PUSH1 0x24 DUP3 ADD MSTORE PUSH32 0x536166654D6174683A206164646974696F6E206F766572666C6F770000000000 PUSH1 0x44 DUP3 ADD MSTORE SWAP1 MLOAD SWAP1 DUP2 SWAP1 SUB PUSH1 0x64 ADD SWAP1 REVERT JUMPDEST SWAP4 SWAP3 POP POP POP JUMP JUMPDEST PUSH1 0x1 PUSH1 0xA0 PUSH1 0x2 EXP SUB DUP3 AND PUSH2 0xD5B JUMPI PUSH1 0x40 MLOAD PUSH1 0xE5 PUSH1 0x2 EXP PUSH3 0x461BCD MUL DUP2 MSTORE PUSH1 0x4 ADD DUP1 DUP1 PUSH1 0x20 ADD DUP3 DUP2 SUB DUP3 MSTORE PUSH1 0x21 DUP2 MSTORE PUSH1 0x20 ADD DUP1 PUSH2 0x1143 PUSH1 0x21 SWAP2 CODECOPY PUSH1 0x40 ADD SWAP2 POP POP PUSH1 0x40 MLOAD DUP1 SWAP2 SUB SWAP1 REVERT JUMPDEST PUSH2 0xD9E DUP2 PUSH1 0x40 MLOAD DUP1 PUSH1 0x60 ADD PUSH1 0x40 MSTORE DUP1 PUSH1 0x22 DUP2 MSTORE PUSH1 0x20 ADD PUSH2 0x1121 PUSH1 0x22 SWAP2 CODECOPY PUSH1 0x1 PUSH1 0xA0 PUSH1 0x2 EXP SUB DUP6 AND PUSH1 0x0 SWAP1 DUP2 MSTORE PUSH1 0x1 PUSH1 0x20 MSTORE PUSH1 0x40 SWAP1 KECCAK256 SLOAD SWAP2 SWAP1 PUSH4 0xFFFFFFFF PUSH2 0xC15 AND JUMP JUMPDEST PUSH1 0x1 PUSH1 0xA0 PUSH1 0x2 EXP SUB DUP4 AND PUSH1 0x0 SWAP1 DUP2 MSTORE PUSH1 0x1 PUSH1 0x20 MSTORE PUSH1 0x40 SWAP1 KECCAK256 SSTORE PUSH1 0x3 SLOAD PUSH2 0xDCA SWAP1 DUP3 PUSH4 0xFFFFFFFF PUSH2 0xFB7 AND JUMP JUMPDEST PUSH1 0x3 SSTORE PUSH1 0x40 DUP1 MLOAD DUP3 DUP2 MSTORE SWAP1 MLOAD PUSH1 0x0 SWAP2 PUSH1 0x1 PUSH1 0xA0 PUSH1 0x2 EXP SUB DUP6 AND SWAP2 PUSH32 0xDDF252AD1BE2C89B69C2B068FC378DAA952BA7F163C4A11628F55A4DF523B3EF SWAP2 DUP2 SWAP1 SUB PUSH1 0x20 ADD SWAP1 LOG3 POP POP JUMP JUMPDEST PUSH1 0x1 PUSH1 0xA0 PUSH1 0x2 EXP SUB DUP3 AND PUSH2 0xE70 JUMPI PUSH1 0x40 DUP1 MLOAD PUSH1 0xE5 PUSH1 0x2 EXP PUSH3 0x461BCD MUL DUP2 MSTORE PUSH1 0x20 PUSH1 0x4 DUP3 ADD MSTORE PUSH1 0x1F PUSH1 0x24 DUP3 ADD MSTORE PUSH32 0x4F524332303A206D696E7420746F20746865207A65726F206164647265737300 PUSH1 0x44 DUP3 ADD MSTORE SWAP1 MLOAD SWAP1 DUP2 SWAP1 SUB PUSH1 0x64 ADD SWAP1 REVERT JUMPDEST PUSH1 0x3 SLOAD PUSH2 0xE83 SWAP1 DUP3 PUSH4 0xFFFFFFFF PUSH2 0xCAF AND JUMP JUMPDEST PUSH1 0x3 SSTORE PUSH1 0x1 PUSH1 0xA0 PUSH1 0x2 EXP SUB DUP3 AND PUSH1 0x0 SWAP1 DUP2 MSTORE PUSH1 0x1 PUSH1 0x20 MSTORE PUSH1 0x40 SWAP1 KECCAK256 SLOAD PUSH2 0xEAF SWAP1 DUP3 PUSH4 0xFFFFFFFF PUSH2 0xCAF AND JUMP JUMPDEST PUSH1 0x1 PUSH1 0xA0 PUSH1 0x2 EXP SUB DUP4 AND PUSH1 0x0 DUP2 DUP2 MSTORE PUSH1 0x1 PUSH1 0x20 SWAP1 DUP2 MSTORE PUSH1 0x40 DUP1 DUP4 KECCAK256 SWAP5 SWAP1 SWAP5 SSTORE DUP4 MLOAD DUP6 DUP2 MSTORE SWAP4 MLOAD SWAP3 SWAP4 SWAP2 SWAP3 PUSH32 0xDDF252AD1BE2C89B69C2B068FC378DAA952BA7F163C4A11628F55A4DF523B3EF SWAP3 DUP2 SWAP1 SUB SWAP1 SWAP2 ADD SWAP1 LOG3 POP POP JUMP JUMPDEST PUSH1 0x1 PUSH1 0xA0 PUSH1 0x2 EXP SUB DUP2 AND PUSH2 0xF4F JUMPI PUSH1 0x40 MLOAD PUSH1 0xE5 PUSH1 0x2 EXP PUSH3 0x461BCD MUL DUP2 MSTORE PUSH1 0x4 ADD DUP1 DUP1 PUSH1 0x20 ADD DUP3 DUP2 SUB DUP3 MSTORE PUSH1 0x26 DUP2 MSTORE PUSH1 0x20 ADD DUP1 PUSH2 0xFFA PUSH1 0x26 SWAP2 CODECOPY PUSH1 0x40 ADD SWAP2 POP POP PUSH1 0x40 MLOAD DUP1 SWAP2 SUB SWAP1 REVERT JUMPDEST PUSH1 0x0 DUP1 SLOAD PUSH1 0x40 MLOAD PUSH1 0x1 PUSH1 0xA0 PUSH1 0x2 EXP SUB DUP1 DUP6 AND SWAP4 SWAP3 AND SWAP2 PUSH32 0x8BE0079C531659141344CD1FD0A4F28419497F9722A3DAAFE3B4186F6B6457E0 SWAP2 LOG3 PUSH1 0x0 DUP1 SLOAD PUSH20 0xFFFFFFFFFFFFFFFFFFFFFFFFFFFFFFFFFFFFFFFF NOT AND PUSH1 0x1 PUSH1 0xA0 PUSH1 0x2 EXP SUB SWAP3 SWAP1 SWAP3 AND SWAP2 SWAP1 SWAP2 OR SWAP1 SSTORE JUMP JUMPDEST PUSH1 0x0 PUSH2 0xD0C DUP4 DUP4 PUSH1 0x40 MLOAD DUP1 PUSH1 0x40 ADD PUSH1 0x40 MSTORE DUP1 PUSH1 0x1E DUP2 MSTORE PUSH1 0x20 ADD PUSH32 0x536166654D6174683A207375627472616374696F6E206F766572666C6F770000 DUP2 MSTORE POP PUSH2 0xC15 JUMP INVALID 0x4F PUSH24 0x6E61626C653A206E6577206F776E65722069732074686520 PUSH27 0x65726F20616464726573734F524332303A207472616E7366657220 PUSH2 0x6D6F PUSH22 0x6E74206578636565647320616C6C6F77616E63654F52 NUMBER ORIGIN ADDRESS GASPRICE KECCAK256 PUSH21 0x72616E7366657220746F20746865207A65726F2061 PUSH5 0x6472657373 0x4F MSTORE NUMBER ORIGIN ADDRESS GASPRICE KECCAK256 PUSH5 0x6563726561 PUSH20 0x656420616C6C6F77616E63652062656C6F77207A PUSH6 0x726F4F524332 ADDRESS GASPRICE KECCAK256 PUSH21 0x72616E7366657220616D6F756E7420657863656564 PUSH20 0x2062616C616E63654F524332303A20617070726F PUSH23 0x652066726F6D20746865207A65726F2061646472657373 0x4F MSTORE NUMBER ORIGIN ADDRESS GASPRICE KECCAK256 PUSH2 0x7070 PUSH19 0x6F766520746F20746865207A65726F20616464 PUSH19 0x6573734F524332303A207472616E7366657220 PUSH7 0x726F6D20746865 KECCAK256 PUSH27 0x65726F20616464726573734F524332303A206275726E20616D6F75 PUSH15 0x7420657863656564732062616C616E PUSH4 0x654F5243 ORIGIN ADDRESS GASPRICE KECCAK256 PUSH3 0x75726E KECCAK256 PUSH7 0x726F6D20746865 KECCAK256 PUSH27 0x65726F2061646472657373A265627A7A7231582014FF5DE612285F LOG3 EXP PUSH24 0x1453D0F99A8BE8765CE77AFA8765C26E685FBAC2E0926473 PUSH16 0x6C634300051000320000000000000000 "
				},
				"gasEstimates": {
					"creation": {
						"codeDepositCost": "900800",
						"executionCost": "infinite",
						"totalCost": "infinite"
					},
					"external": {
						"_decimals()": "291",
						"_name()": "infinite",
						"_symbol()": "infinite",
						"allowance(address,address)": "627",
						"approve(address,uint256)": "infinite",
						"balanceOf(address)": "520",
						"burn(uint256)": "infinite",
						"decimals()": "380",
						"decreaseAllowance(address,uint256)": "infinite",
						"getOwner()": "384",
						"increaseAllowance(address,uint256)": "infinite",
						"mint(uint256)": "infinite",
						"name()": "infinite",
						"owner()": "371",
						"renounceOwnership()": "22092",
						"symbol()": "infinite",
						"totalSupply()": "321",
						"transfer(address,uint256)": "infinite",
						"transferFrom(address,address,uint256)": "infinite",
						"transferOwnership(address)": "infinite"
					},
					"internal": {
						"_approve(address,address,uint256)": "infinite",
						"_burn(address,uint256)": "infinite",
						"_burnFrom(address,uint256)": "infinite",
						"_mint(address,uint256)": "infinite",
						"_transfer(address,address,uint256)": "infinite"
					}
				},
				"methodIdentifiers": {
					"_decimals()": "32424aa3",
					"_name()": "d28d8852",
					"_symbol()": "b09f1266",
					"allowance(address,address)": "dd62ed3e",
					"approve(address,uint256)": "095ea7b3",
					"balanceOf(address)": "70a08231",
					"burn(uint256)": "42966c68",
					"decimals()": "313ce567",
					"decreaseAllowance(address,uint256)": "a457c2d7",
					"getOwner()": "893d20e8",
					"increaseAllowance(address,uint256)": "39509351",
					"mint(uint256)": "a0712d68",
					"name()": "06fdde03",
					"owner()": "8da5cb5b",
					"renounceOwnership()": "715018a6",
					"symbol()": "95d89b41",
					"totalSupply()": "18160ddd",
					"transfer(address,uint256)": "a9059cbb",
					"transferFrom(address,address,uint256)": "23b872dd",
					"transferOwnership(address)": "f2fde38b"
				}
			},
			"storageLayout": {
				"storage": [
					{
						"astId": 302,
						"contract": "contracts/Tether USD.sol:TetherUSD",
						"label": "_owner",
						"offset": 0,
						"slot": "0",
						"type": "t_address"
					},
					{
						"astId": 417,
						"contract": "contracts/Tether USD.sol:TetherUSD",
						"label": "_balances",
						"offset": 0,
						"slot": "1",
						"type": "t_mapping(t_address,t_uint256)"
					},
					{
						"astId": 423,
						"contract": "contracts/Tether USD.sol:TetherUSD",
						"label": "_allowances",
						"offset": 0,
						"slot": "2",
						"type": "t_mapping(t_address,t_mapping(t_address,t_uint256))"
					},
					{
						"astId": 425,
						"contract": "contracts/Tether USD.sol:TetherUSD",
						"label": "_totalSupply",
						"offset": 0,
						"slot": "3",
						"type": "t_uint256"
					},
					{
						"astId": 427,
						"contract": "contracts/Tether USD.sol:TetherUSD",
						"label": "_decimals",
						"offset": 0,
						"slot": "4",
						"type": "t_uint8"
					},
					{
						"astId": 429,
						"contract": "contracts/Tether USD.sol:TetherUSD",
						"label": "_symbol",
						"offset": 0,
						"slot": "5",
						"type": "t_string_storage"
					},
					{
						"astId": 431,
						"contract": "contracts/Tether USD.sol:TetherUSD",
						"label": "_name",
						"offset": 0,
						"slot": "6",
						"type": "t_string_storage"
					}
				],
				"types": {
					"t_address": {
						"encoding": "inplace",
						"label": "address",
						"numberOfBytes": "20"
					},
					"t_mapping(t_address,t_mapping(t_address,t_uint256))": {
						"encoding": "mapping",
						"key": "t_address",
						"label": "mapping(address => mapping(address => uint256))",
						"numberOfBytes": "32",
						"value": "t_mapping(t_address,t_uint256)"
					},
					"t_mapping(t_address,t_uint256)": {
						"encoding": "mapping",
						"key": "t_address",
						"label": "mapping(address => uint256)",
						"numberOfBytes": "32",
						"value": "t_uint256"
					},
					"t_string_storage": {
						"encoding": "bytes",
						"label": "string",
						"numberOfBytes": "32"
					},
					"t_uint256": {
						"encoding": "inplace",
						"label": "uint256",
						"numberOfBytes": "32"
					},
					"t_uint8": {
						"encoding": "inplace",
						"label": "uint8",
						"numberOfBytes": "1"
					}
				}
			},
			"userdoc": {
				"methods": {}
			}
		}
	}
}